{
    "contractName": "NFTMarketplace",
    "abi": [
        {
            "inputs": [],
            "stateMutability": "nonpayable",
            "type": "constructor"
        },
        {
            "anonymous": false,
            "inputs": [
                {
                    "indexed": true,
                    "internalType": "address",
                    "name": "owner",
                    "type": "address"
                },
                {
                    "indexed": true,
                    "internalType": "address",
                    "name": "approved",
                    "type": "address"
                },
                {
                    "indexed": true,
                    "internalType": "uint256",
                    "name": "tokenId",
                    "type": "uint256"
                }
            ],
            "name": "Approval",
            "type": "event"
        },
        {
            "anonymous": false,
            "inputs": [
                {
                    "indexed": true,
                    "internalType": "address",
                    "name": "owner",
                    "type": "address"
                },
                {
                    "indexed": true,
                    "internalType": "address",
                    "name": "operator",
                    "type": "address"
                },
                {
                    "indexed": false,
                    "internalType": "bool",
                    "name": "approved",
                    "type": "bool"
                }
            ],
            "name": "ApprovalForAll",
            "type": "event"
        },
        {
            "anonymous": false,
            "inputs": [
                {
                    "indexed": true,
                    "internalType": "uint256",
                    "name": "tokenId",
                    "type": "uint256"
                },
                {
                    "indexed": false,
                    "internalType": "address",
                    "name": "seller",
                    "type": "address"
                },
                {
                    "indexed": false,
                    "internalType": "address",
                    "name": "owner",
                    "type": "address"
                },
                {
                    "indexed": false,
                    "internalType": "uint256",
                    "name": "price",
                    "type": "uint256"
                },
                {
                    "indexed": false,
                    "internalType": "bool",
                    "name": "sold",
                    "type": "bool"
                }
            ],
            "name": "MarketItemCreated",
            "type": "event"
        },
        {
            "anonymous": false,
            "inputs": [
                {
                    "indexed": true,
                    "internalType": "address",
                    "name": "from",
                    "type": "address"
                },
                {
                    "indexed": true,
                    "internalType": "address",
                    "name": "to",
                    "type": "address"
                },
                {
                    "indexed": true,
                    "internalType": "uint256",
                    "name": "tokenId",
                    "type": "uint256"
                }
            ],
            "name": "Transfer",
            "type": "event"
        },
        {
            "inputs": [
                {
                    "internalType": "address",
                    "name": "to",
                    "type": "address"
                },
                {
                    "internalType": "uint256",
                    "name": "tokenId",
                    "type": "uint256"
                }
            ],
            "name": "approve",
            "outputs": [],
            "stateMutability": "nonpayable",
            "type": "function"
        },
        {
            "inputs": [
                {
                    "internalType": "address",
                    "name": "owner",
                    "type": "address"
                }
            ],
            "name": "balanceOf",
            "outputs": [
                {
                    "internalType": "uint256",
                    "name": "",
                    "type": "uint256"
                }
            ],
            "stateMutability": "view",
            "type": "function"
        },
        {
            "inputs": [
                {
                    "internalType": "uint256",
                    "name": "tokenId",
                    "type": "uint256"
                }
            ],
            "name": "createMarketSale",
            "outputs": [],
            "stateMutability": "payable",
            "type": "function"
        },
        {
            "inputs": [
                {
                    "internalType": "string",
                    "name": "tokenURI",
                    "type": "string"
                },
                {
                    "internalType": "uint256",
                    "name": "price",
                    "type": "uint256"
                }
            ],
            "name": "createToken",
            "outputs": [
                {
                    "internalType": "uint256",
                    "name": "",
                    "type": "uint256"
                }
            ],
            "stateMutability": "payable",
            "type": "function"
        },
        {
            "inputs": [
                {
                    "internalType": "uint256",
                    "name": "tokenId",
                    "type": "uint256"
                }
            ],
            "name": "getApproved",
            "outputs": [
                {
                    "internalType": "address",
                    "name": "",
                    "type": "address"
                }
            ],
            "stateMutability": "view",
            "type": "function"
        },
        {
            "inputs": [],
            "name": "getListingPrice",
            "outputs": [
                {
                    "internalType": "uint256",
                    "name": "",
                    "type": "uint256"
                }
            ],
            "stateMutability": "view",
            "type": "function"
        },
        {
            "inputs": [
                {
                    "internalType": "address",
                    "name": "owner",
                    "type": "address"
                },
                {
                    "internalType": "address",
                    "name": "operator",
                    "type": "address"
                }
            ],
            "name": "isApprovedForAll",
            "outputs": [
                {
                    "internalType": "bool",
                    "name": "",
                    "type": "bool"
                }
            ],
            "stateMutability": "view",
            "type": "function"
        },
        {
            "inputs": [],
            "name": "name",
            "outputs": [
                {
                    "internalType": "string",
                    "name": "",
                    "type": "string"
                }
            ],
            "stateMutability": "view",
            "type": "function"
        },
        {
            "inputs": [
                {
                    "internalType": "uint256",
                    "name": "tokenId",
                    "type": "uint256"
                }
            ],
            "name": "ownerOf",
            "outputs": [
                {
                    "internalType": "address",
                    "name": "",
                    "type": "address"
                }
            ],
            "stateMutability": "view",
            "type": "function"
        },
        {
            "inputs": [
                {
                    "internalType": "address",
                    "name": "from",
                    "type": "address"
                },
                {
                    "internalType": "address",
                    "name": "to",
                    "type": "address"
                },
                {
                    "internalType": "uint256",
                    "name": "tokenId",
                    "type": "uint256"
                }
            ],
            "name": "safeTransferFrom",
            "outputs": [],
            "stateMutability": "nonpayable",
            "type": "function"
        },
        {
            "inputs": [
                {
                    "internalType": "address",
                    "name": "from",
                    "type": "address"
                },
                {
                    "internalType": "address",
                    "name": "to",
                    "type": "address"
                },
                {
                    "internalType": "uint256",
                    "name": "tokenId",
                    "type": "uint256"
                },
                {
                    "internalType": "bytes",
                    "name": "data",
                    "type": "bytes"
                }
            ],
            "name": "safeTransferFrom",
            "outputs": [],
            "stateMutability": "nonpayable",
            "type": "function"
        },
        {
            "inputs": [
                {
                    "internalType": "address",
                    "name": "operator",
                    "type": "address"
                },
                {
                    "internalType": "bool",
                    "name": "approved",
                    "type": "bool"
                }
            ],
            "name": "setApprovalForAll",
            "outputs": [],
            "stateMutability": "nonpayable",
            "type": "function"
        },
        {
            "inputs": [
                {
                    "internalType": "bytes4",
                    "name": "interfaceId",
                    "type": "bytes4"
                }
            ],
            "name": "supportsInterface",
            "outputs": [
                {
                    "internalType": "bool",
                    "name": "",
                    "type": "bool"
                }
            ],
            "stateMutability": "view",
            "type": "function"
        },
        {
            "inputs": [],
            "name": "symbol",
            "outputs": [
                {
                    "internalType": "string",
                    "name": "",
                    "type": "string"
                }
            ],
            "stateMutability": "view",
            "type": "function"
        },
        {
            "inputs": [
                {
                    "internalType": "uint256",
                    "name": "tokenId",
                    "type": "uint256"
                }
            ],
            "name": "tokenURI",
            "outputs": [
                {
                    "internalType": "string",
                    "name": "",
                    "type": "string"
                }
            ],
            "stateMutability": "view",
            "type": "function"
        },
        {
            "inputs": [
                {
                    "internalType": "address",
                    "name": "from",
                    "type": "address"
                },
                {
                    "internalType": "address",
                    "name": "to",
                    "type": "address"
                },
                {
                    "internalType": "uint256",
                    "name": "tokenId",
                    "type": "uint256"
                }
            ],
            "name": "transferFrom",
            "outputs": [],
            "stateMutability": "nonpayable",
            "type": "function"
        },
        {
            "inputs": [
                {
                    "internalType": "uint256",
                    "name": "_listingPrice",
                    "type": "uint256"
                }
            ],
            "name": "updateListingPrice",
            "outputs": [],
            "stateMutability": "payable",
            "type": "function"
        }
    ],
    "bytecode": "608060405266038d7ea4c680006009553480156200001c57600080fd5b506040518060400160405280601081526020016f4d657461766572736520546f6b656e7360801b815250604051806040016040528060048152602001634d45544160e01b815250816000908162000074919062000143565b50600162000083828262000143565b5050600a80546001600160a01b03191633179055506200020f565b634e487b7160e01b600052604160045260246000fd5b600181811c90821680620000c957607f821691505b602082108103620000ea57634e487b7160e01b600052602260045260246000fd5b50919050565b601f8211156200013e57600081815260208120601f850160051c81016020861015620001195750805b601f850160051c820191505b818110156200013a5782815560010162000125565b5050505b505050565b81516001600160401b038111156200015f576200015f6200009e565b6200017781620001708454620000b4565b84620000f0565b602080601f831160018114620001af5760008415620001965750858301515b600019600386901b1c1916600185901b1785556200013a565b600085815260208120601f198616915b82811015620001e057888601518255948401946001909101908401620001bf565b5085821015620001ff5787850151600019600388901b60f8161c191681555b5050505050600190811b01905550565b611b4d806200021f6000396000f3fe6080604052600436106100fe5760003560e01c806370a0823111610095578063ae677aa311610064578063ae677aa31461029b578063b88d4fde146102ae578063be9af536146102ce578063c87b56dd146102e1578063e985e9c51461030157600080fd5b806370a082311461023357806372b3b6201461025357806395d89b4114610266578063a22cb4651461027b57600080fd5b806312e85585116100d157806312e85585146101b457806323b872dd146101d357806342842e0e146101f35780636352211e1461021357600080fd5b806301ffc9a71461010357806306fdde0314610138578063081812fc1461015a578063095ea7b314610192575b600080fd5b34801561010f57600080fd5b5061012361011e366004611520565b61034a565b60405190151581526020015b60405180910390f35b34801561014457600080fd5b5061014d61039c565b60405161012f919061158d565b34801561016657600080fd5b5061017a6101753660046115a0565b61042e565b6040516001600160a01b03909116815260200161012f565b34801561019e57600080fd5b506101b26101ad3660046115d5565b610455565b005b3480156101c057600080fd5b506009545b60405190815260200161012f565b3480156101df57600080fd5b506101b26101ee3660046115ff565b61056f565b3480156101ff57600080fd5b506101b261020e3660046115ff565b6105a0565b34801561021f57600080fd5b5061017a61022e3660046115a0565b6105bb565b34801561023f57600080fd5b506101c561024e36600461163b565b61061b565b6101c56102613660046116e2565b6106a1565b34801561027257600080fd5b5061014d6106e3565b34801561028757600080fd5b506101b261029636600461173b565b6106f2565b6101b26102a93660046115a0565b610701565b3480156102ba57600080fd5b506101b26102c9366004611777565b610778565b6101b26102dc3660046115a0565b6107b0565b3480156102ed57600080fd5b5061014d6102fc3660046115a0565b610915565b34801561030d57600080fd5b5061012361031c3660046117f3565b6001600160a01b03918216600090815260056020908152604080832093909416825291909152205460ff1690565b60006001600160e01b031982166380ac58cd60e01b148061037b57506001600160e01b03198216635b5e139f60e01b145b8061039657506301ffc9a760e01b6001600160e01b03198316145b92915050565b6060600080546103ab90611826565b80601f01602080910402602001604051908101604052809291908181526020018280546103d790611826565b80156104245780601f106103f957610100808354040283529160200191610424565b820191906000526020600020905b81548152906001019060200180831161040757829003601f168201915b5050505050905090565b600061043982610a25565b506000908152600460205260409020546001600160a01b031690565b6000610460826105bb565b9050806001600160a01b0316836001600160a01b0316036104d25760405162461bcd60e51b815260206004820152602160248201527f4552433732313a20617070726f76616c20746f2063757272656e74206f776e656044820152603960f91b60648201526084015b60405180910390fd5b336001600160a01b03821614806104ee57506104ee813361031c565b6105605760405162461bcd60e51b815260206004820152603d60248201527f4552433732313a20617070726f76652063616c6c6572206973206e6f7420746f60448201527f6b656e206f776e6572206f7220617070726f76656420666f7220616c6c00000060648201526084016104c9565b61056a8383610a87565b505050565b6105793382610af5565b6105955760405162461bcd60e51b81526004016104c990611860565b61056a838383610b73565b61056a83838360405180602001604052806000815250610778565b6000818152600260205260408120546001600160a01b0316806103965760405162461bcd60e51b8152602060048201526018602482015277115490cdcc8c4e881a5b9d985b1a59081d1bdad95b88125160421b60448201526064016104c9565b60006001600160a01b0382166106855760405162461bcd60e51b815260206004820152602960248201527f4552433732313a2061646472657373207a65726f206973206e6f7420612076616044820152683634b21037bbb732b960b91b60648201526084016104c9565b506001600160a01b031660009081526003602052604090205490565b60006106b1600780546001019055565b60006106bc60075490565b90506106c83382610ce4565b6106d28185610e7d565b6106dc8184610f10565b9392505050565b6060600180546103ab90611826565b6106fd3383836110a2565b5050565b600a546001600160a01b031633146107735760405162461bcd60e51b815260206004820152602f60248201527f4f6e6c79206d61726b6574706c616365206f776e65722063616e20757064617460448201526e65206c697374696e6720707269636560881b60648201526084016104c9565b600955565b6107823383610af5565b61079e5760405162461bcd60e51b81526004016104c990611860565b6107aa84848484611170565b50505050565b6000818152600b6020526040902060038101546001909101546001600160a01b0316348214610849576040805162461bcd60e51b81526020600482015260248101919091527f506c65617365207375626d6974207468652061736b696e67207072696365206960448201527f6e206f7264657220746f20636f6d706c6574652074686520707572636861736560648201526084016104c9565b6000838152600b602052604090206002810180546001600160a01b0319908116331790915560048201805460ff1916600190811790915590910180549091169055610898600880546001019055565b6108a3303385610b73565b600a546009546040516001600160a01b039092169181156108fc0291906000818181858888f193505050501580156108df573d6000803e3d6000fd5b506040516001600160a01b038216903480156108fc02916000818181858888f193505050501580156107aa573d6000803e3d6000fd5b606061092082610a25565b6000828152600660205260408120805461093990611826565b80601f016020809104026020016040519081016040528092919081815260200182805461096590611826565b80156109b25780601f10610987576101008083540402835291602001916109b2565b820191906000526020600020905b81548152906001019060200180831161099557829003601f168201915b5050505050905060006109d060408051602081019091526000815290565b905080516000036109e2575092915050565b815115610a145780826040516020016109fc9291906118ad565b60405160208183030381529060405292505050919050565b610a1d846111a3565b949350505050565b6000818152600260205260409020546001600160a01b0316610a845760405162461bcd60e51b8152602060048201526018602482015277115490cdcc8c4e881a5b9d985b1a59081d1bdad95b88125160421b60448201526064016104c9565b50565b600081815260046020526040902080546001600160a01b0319166001600160a01b0384169081179091558190610abc826105bb565b6001600160a01b03167f8c5be1e5ebec7d5bd14f71427d1e84f3dd0314c0f7b2291e5b200ac8c7c3b92560405160405180910390a45050565b600080610b01836105bb565b9050806001600160a01b0316846001600160a01b03161480610b4857506001600160a01b0380821660009081526005602090815260408083209388168352929052205460ff165b80610a1d5750836001600160a01b0316610b618461042e565b6001600160a01b031614949350505050565b826001600160a01b0316610b86826105bb565b6001600160a01b031614610bac5760405162461bcd60e51b81526004016104c9906118dc565b6001600160a01b038216610c0e5760405162461bcd60e51b8152602060048201526024808201527f4552433732313a207472616e7366657220746f20746865207a65726f206164646044820152637265737360e01b60648201526084016104c9565b610c1b8383836001611216565b826001600160a01b0316610c2e826105bb565b6001600160a01b031614610c545760405162461bcd60e51b81526004016104c9906118dc565b600081815260046020908152604080832080546001600160a01b03199081169091556001600160a01b0387811680865260038552838620805460001901905590871680865283862080546001019055868652600290945282852080549092168417909155905184937fddf252ad1be2c89b69c2b068fc378daa952ba7f163c4a11628f55a4df523b3ef91a4505050565b6001600160a01b038216610d3a5760405162461bcd60e51b815260206004820181905260248201527f4552433732313a206d696e7420746f20746865207a65726f206164647265737360448201526064016104c9565b6000818152600260205260409020546001600160a01b031615610d9f5760405162461bcd60e51b815260206004820152601c60248201527f4552433732313a20746f6b656e20616c7265616479206d696e7465640000000060448201526064016104c9565b610dad600083836001611216565b6000818152600260205260409020546001600160a01b031615610e125760405162461bcd60e51b815260206004820152601c60248201527f4552433732313a20746f6b656e20616c7265616479206d696e7465640000000060448201526064016104c9565b6001600160a01b038216600081815260036020908152604080832080546001019055848352600290915280822080546001600160a01b0319168417905551839291907fddf252ad1be2c89b69c2b068fc378daa952ba7f163c4a11628f55a4df523b3ef908290a45050565b6000828152600260205260409020546001600160a01b0316610ef85760405162461bcd60e51b815260206004820152602e60248201527f45524337323155524953746f726167653a2055524920736574206f66206e6f6e60448201526d32bc34b9ba32b73a103a37b5b2b760911b60648201526084016104c9565b600082815260066020526040902061056a828261196f565b60008111610f605760405162461bcd60e51b815260206004820152601f60248201527f5072696365206d7573742062652067726561746572207468616e207a65726f0060448201526064016104c9565b6009543414610fbd5760405162461bcd60e51b8152602060048201526024808201527f5072696365206d75737420626520657175616c20746f206c697374696e6720706044820152637269636560e01b60648201526084016104c9565b6040805160a08101825283815233602080830182815230848601818152606086018881526000608088018181528b8252600b909652979097209551865591516001860180546001600160a01b03199081166001600160a01b0393841617909155925160028701805490941691161790915593516003840155516004909201805460ff1916921515929092179091556110559184610b73565b604080513381523060208201529081018290526000606082015282907fb640004f1d14576d0c209e240cad0410e0d8c0c33a09375861fbadae2588a98d9060800160405180910390a25050565b816001600160a01b0316836001600160a01b0316036111035760405162461bcd60e51b815260206004820152601960248201527f4552433732313a20617070726f766520746f2063616c6c65720000000000000060448201526064016104c9565b6001600160a01b03838116600081815260056020908152604080832094871680845294825291829020805460ff191686151590811790915591519182527f17307eab39ab6107e8899845ad3d59bd9653f200f220920489ca2b5937696c31910160405180910390a3505050565b61117b848484610b73565b6111878484848461129e565b6107aa5760405162461bcd60e51b81526004016104c990611a2f565b60606111ae82610a25565b60006111c560408051602081019091526000815290565b905060008151116111e557604051806020016040528060008152506106dc565b806111ef8461139f565b6040516020016112009291906118ad565b6040516020818303038152906040529392505050565b60018111156107aa576001600160a01b0384161561125c576001600160a01b03841660009081526003602052604081208054839290611256908490611a97565b90915550505b6001600160a01b038316156107aa576001600160a01b03831660009081526003602052604081208054839290611293908490611aaa565b909155505050505050565b60006001600160a01b0384163b1561139457604051630a85bd0160e11b81526001600160a01b0385169063150b7a02906112e2903390899088908890600401611abd565b6020604051808303816000875af192505050801561131d575060408051601f3d908101601f1916820190925261131a91810190611afa565b60015b61137a573d80801561134b576040519150601f19603f3d011682016040523d82523d6000602084013e611350565b606091505b5080516000036113725760405162461bcd60e51b81526004016104c990611a2f565b805181602001fd5b6001600160e01b031916630a85bd0160e11b149050610a1d565b506001949350505050565b606060006113ac83611432565b600101905060008167ffffffffffffffff8111156113cc576113cc611656565b6040519080825280601f01601f1916602001820160405280156113f6576020820181803683370190505b5090508181016020015b600019016f181899199a1a9b1b9c1cb0b131b232b360811b600a86061a8153600a850494508461140057509392505050565b60008072184f03e93ff9f4daa797ed6e38ed64bf6a1f0160401b83106114715772184f03e93ff9f4daa797ed6e38ed64bf6a1f0160401b830492506040015b6d04ee2d6d415b85acef8100000000831061149d576d04ee2d6d415b85acef8100000000830492506020015b662386f26fc1000083106114bb57662386f26fc10000830492506010015b6305f5e10083106114d3576305f5e100830492506008015b61271083106114e757612710830492506004015b606483106114f9576064830492506002015b600a83106103965760010192915050565b6001600160e01b031981168114610a8457600080fd5b60006020828403121561153257600080fd5b81356106dc8161150a565b60005b83811015611558578181015183820152602001611540565b50506000910152565b6000815180845261157981602086016020860161153d565b601f01601f19169290920160200192915050565b6020815260006106dc6020830184611561565b6000602082840312156115b257600080fd5b5035919050565b80356001600160a01b03811681146115d057600080fd5b919050565b600080604083850312156115e857600080fd5b6115f1836115b9565b946020939093013593505050565b60008060006060848603121561161457600080fd5b61161d846115b9565b925061162b602085016115b9565b9150604084013590509250925092565b60006020828403121561164d57600080fd5b6106dc826115b9565b634e487b7160e01b600052604160045260246000fd5b600067ffffffffffffffff8084111561168757611687611656565b604051601f8501601f19908116603f011681019082821181831017156116af576116af611656565b816040528093508581528686860111156116c857600080fd5b858560208301376000602087830101525050509392505050565b600080604083850312156116f557600080fd5b823567ffffffffffffffff81111561170c57600080fd5b8301601f8101851361171d57600080fd5b61172c8582356020840161166c565b95602094909401359450505050565b6000806040838503121561174e57600080fd5b611757836115b9565b91506020830135801515811461176c57600080fd5b809150509250929050565b6000806000806080858703121561178d57600080fd5b611796856115b9565b93506117a4602086016115b9565b925060408501359150606085013567ffffffffffffffff8111156117c757600080fd5b8501601f810187136117d857600080fd5b6117e78782356020840161166c565b91505092959194509250565b6000806040838503121561180657600080fd5b61180f836115b9565b915061181d602084016115b9565b90509250929050565b600181811c9082168061183a57607f821691505b60208210810361185a57634e487b7160e01b600052602260045260246000fd5b50919050565b6020808252602d908201527f4552433732313a2063616c6c6572206973206e6f7420746f6b656e206f776e6560408201526c1c881bdc88185c1c1c9bdd9959609a1b606082015260800190565b600083516118bf81846020880161153d565b8351908301906118d381836020880161153d565b01949350505050565b60208082526025908201527f4552433732313a207472616e736665722066726f6d20696e636f72726563742060408201526437bbb732b960d91b606082015260800190565b601f82111561056a57600081815260208120601f850160051c810160208610156119485750805b601f850160051c820191505b8181101561196757828155600101611954565b505050505050565b815167ffffffffffffffff81111561198957611989611656565b61199d816119978454611826565b84611921565b602080601f8311600181146119d257600084156119ba5750858301515b600019600386901b1c1916600185901b178555611967565b600085815260208120601f198616915b82811015611a01578886015182559484019460019091019084016119e2565b5085821015611a1f5787850151600019600388901b60f8161c191681555b5050505050600190811b01905550565b60208082526032908201527f4552433732313a207472616e7366657220746f206e6f6e20455243373231526560408201527131b2b4bb32b91034b6b83632b6b2b73a32b960711b606082015260800190565b634e487b7160e01b600052601160045260246000fd5b8181038181111561039657610396611a81565b8082018082111561039657610396611a81565b6001600160a01b0385811682528416602082015260408101839052608060608201819052600090611af090830184611561565b9695505050505050565b600060208284031215611b0c57600080fd5b81516106dc8161150a56fea2646970667358221220325fc2b9d56d339b9478cc085e764aa6242bc8bd8f1d9ebffef6234ca4b9e01364736f6c63430008110033",
    "sourcePath": "/Users/junibrosas/code/apps/playground/nft_marketplate/contracts/NFTMarket.sol",
    "compiler": {
        "name": "solc",
        "version": "0.8.17+commit.8df45f5f"
    },
    "functionHashes": {
        "approve(address,uint256)": "095ea7b3",
        "balanceOf(address)": "70a08231",
        "createMarketSale(uint256)": "be9af536",
        "createToken(string,uint256)": "72b3b620",
        "getApproved(uint256)": "081812fc",
        "getListingPrice()": "12e85585",
        "isApprovedForAll(address,address)": "e985e9c5",
        "name()": "06fdde03",
        "ownerOf(uint256)": "6352211e",
        "safeTransferFrom(address,address,uint256)": "42842e0e",
        "safeTransferFrom(address,address,uint256,bytes)": "b88d4fde",
        "setApprovalForAll(address,bool)": "a22cb465",
        "supportsInterface(bytes4)": "01ffc9a7",
        "symbol()": "95d89b41",
        "tokenURI(uint256)": "c87b56dd",
        "transferFrom(address,address,uint256)": "23b872dd",
        "updateListingPrice(uint256)": "ae677aa3"
    },
    "gasEstimates": {
        "creation": {
            "codeDepositCost": "1397800",
            "executionCost": "infinite",
            "totalCost": "infinite"
        },
        "external": {
            "approve(address,uint256)": "infinite",
            "balanceOf(address)": "2612",
            "createMarketSale(uint256)": "infinite",
            "createToken(string,uint256)": "infinite",
            "getApproved(uint256)": "4792",
            "getListingPrice()": "2304",
            "isApprovedForAll(address,address)": "infinite",
            "name()": "infinite",
            "ownerOf(uint256)": "2627",
            "safeTransferFrom(address,address,uint256)": "infinite",
            "safeTransferFrom(address,address,uint256,bytes)": "infinite",
            "setApprovalForAll(address,bool)": "26772",
            "supportsInterface(bytes4)": "534",
            "symbol()": "infinite",
            "tokenURI(uint256)": "infinite",
            "transferFrom(address,address,uint256)": "infinite",
            "updateListingPrice(uint256)": "24462"
        },
        "internal": {
            "createMarketItem(uint256,uint256)": "infinite"
        }
    }
}