{
  "_format": "hh-sol-artifact-1",
  "contractName": "NFTMarketplace",
  "sourceName": "contracts/NFTMarket.sol",
  "abi": [
    {
      "inputs": [],
      "stateMutability": "nonpayable",
      "type": "constructor"
    },
    {
      "anonymous": false,
      "inputs": [
        {
          "indexed": true,
          "internalType": "address",
          "name": "owner",
          "type": "address"
        },
        {
          "indexed": true,
          "internalType": "address",
          "name": "approved",
          "type": "address"
        },
        {
          "indexed": true,
          "internalType": "uint256",
          "name": "tokenId",
          "type": "uint256"
        }
      ],
      "name": "Approval",
      "type": "event"
    },
    {
      "anonymous": false,
      "inputs": [
        {
          "indexed": true,
          "internalType": "address",
          "name": "owner",
          "type": "address"
        },
        {
          "indexed": true,
          "internalType": "address",
          "name": "operator",
          "type": "address"
        },
        {
          "indexed": false,
          "internalType": "bool",
          "name": "approved",
          "type": "bool"
        }
      ],
      "name": "ApprovalForAll",
      "type": "event"
    },
    {
      "anonymous": false,
      "inputs": [
        {
          "indexed": true,
          "internalType": "uint256",
          "name": "tokenId",
          "type": "uint256"
        },
        {
          "indexed": false,
          "internalType": "address",
          "name": "seller",
          "type": "address"
        },
        {
          "indexed": false,
          "internalType": "address",
          "name": "owner",
          "type": "address"
        },
        {
          "indexed": false,
          "internalType": "uint256",
          "name": "price",
          "type": "uint256"
        },
        {
          "indexed": false,
          "internalType": "bool",
          "name": "sold",
          "type": "bool"
        }
      ],
      "name": "MarketItemCreated",
      "type": "event"
    },
    {
      "anonymous": false,
      "inputs": [
        {
          "indexed": true,
          "internalType": "address",
          "name": "from",
          "type": "address"
        },
        {
          "indexed": true,
          "internalType": "address",
          "name": "to",
          "type": "address"
        },
        {
          "indexed": true,
          "internalType": "uint256",
          "name": "tokenId",
          "type": "uint256"
        }
      ],
      "name": "Transfer",
      "type": "event"
    },
    {
      "inputs": [
        {
          "internalType": "address",
          "name": "to",
          "type": "address"
        },
        {
          "internalType": "uint256",
          "name": "tokenId",
          "type": "uint256"
        }
      ],
      "name": "approve",
      "outputs": [],
      "stateMutability": "nonpayable",
      "type": "function"
    },
    {
      "inputs": [
        {
          "internalType": "address",
          "name": "owner",
          "type": "address"
        }
      ],
      "name": "balanceOf",
      "outputs": [
        {
          "internalType": "uint256",
          "name": "",
          "type": "uint256"
        }
      ],
      "stateMutability": "view",
      "type": "function"
    },
    {
      "inputs": [
        {
          "internalType": "uint256",
          "name": "tokenId",
          "type": "uint256"
        }
      ],
      "name": "cancelItemListing",
      "outputs": [],
      "stateMutability": "nonpayable",
      "type": "function"
    },
    {
      "inputs": [
        {
          "internalType": "uint256",
          "name": "tokenId",
          "type": "uint256"
        }
      ],
      "name": "createMarketSale",
      "outputs": [],
      "stateMutability": "payable",
      "type": "function"
    },
    {
      "inputs": [
        {
          "internalType": "string",
          "name": "tokenURI",
          "type": "string"
        },
        {
          "internalType": "uint256",
          "name": "price",
          "type": "uint256"
        }
      ],
      "name": "createToken",
      "outputs": [
        {
          "internalType": "uint256",
          "name": "",
          "type": "uint256"
        }
      ],
      "stateMutability": "payable",
      "type": "function"
    },
    {
      "inputs": [],
      "name": "fetchMarketItems",
      "outputs": [
        {
          "components": [
            {
              "internalType": "uint256",
              "name": "tokenId",
              "type": "uint256"
            },
            {
              "internalType": "address payable",
              "name": "seller",
              "type": "address"
            },
            {
              "internalType": "address payable",
              "name": "owner",
              "type": "address"
            },
            {
              "internalType": "uint256",
              "name": "price",
              "type": "uint256"
            },
            {
              "internalType": "bool",
              "name": "sold",
              "type": "bool"
            }
          ],
          "internalType": "struct NFTMarketplace.MarketItem[]",
          "name": "",
          "type": "tuple[]"
        }
      ],
      "stateMutability": "view",
      "type": "function"
    },
    {
      "inputs": [],
      "name": "fetchMyNFTs",
      "outputs": [
        {
          "components": [
            {
              "internalType": "uint256",
              "name": "tokenId",
              "type": "uint256"
            },
            {
              "internalType": "address payable",
              "name": "seller",
              "type": "address"
            },
            {
              "internalType": "address payable",
              "name": "owner",
              "type": "address"
            },
            {
              "internalType": "uint256",
              "name": "price",
              "type": "uint256"
            },
            {
              "internalType": "bool",
              "name": "sold",
              "type": "bool"
            }
          ],
          "internalType": "struct NFTMarketplace.MarketItem[]",
          "name": "",
          "type": "tuple[]"
        }
      ],
      "stateMutability": "view",
      "type": "function"
    },
    {
      "inputs": [
        {
          "internalType": "uint256",
          "name": "tokenId",
          "type": "uint256"
        }
      ],
      "name": "getApproved",
      "outputs": [
        {
          "internalType": "address",
          "name": "",
          "type": "address"
        }
      ],
      "stateMutability": "view",
      "type": "function"
    },
    {
      "inputs": [],
      "name": "getListingPrice",
      "outputs": [
        {
          "internalType": "uint256",
          "name": "",
          "type": "uint256"
        }
      ],
      "stateMutability": "view",
      "type": "function"
    },
    {
      "inputs": [
        {
          "internalType": "address",
          "name": "owner",
          "type": "address"
        },
        {
          "internalType": "address",
          "name": "operator",
          "type": "address"
        }
      ],
      "name": "isApprovedForAll",
      "outputs": [
        {
          "internalType": "bool",
          "name": "",
          "type": "bool"
        }
      ],
      "stateMutability": "view",
      "type": "function"
    },
    {
      "inputs": [],
      "name": "name",
      "outputs": [
        {
          "internalType": "string",
          "name": "",
          "type": "string"
        }
      ],
      "stateMutability": "view",
      "type": "function"
    },
    {
      "inputs": [
        {
          "internalType": "uint256",
          "name": "tokenId",
          "type": "uint256"
        }
      ],
      "name": "ownerOf",
      "outputs": [
        {
          "internalType": "address",
          "name": "",
          "type": "address"
        }
      ],
      "stateMutability": "view",
      "type": "function"
    },
    {
      "inputs": [
        {
          "internalType": "uint256",
          "name": "tokenId",
          "type": "uint256"
        },
        {
          "internalType": "uint256",
          "name": "price",
          "type": "uint256"
        }
      ],
      "name": "resellToken",
      "outputs": [],
      "stateMutability": "payable",
      "type": "function"
    },
    {
      "inputs": [
        {
          "internalType": "address",
          "name": "from",
          "type": "address"
        },
        {
          "internalType": "address",
          "name": "to",
          "type": "address"
        },
        {
          "internalType": "uint256",
          "name": "tokenId",
          "type": "uint256"
        }
      ],
      "name": "safeTransferFrom",
      "outputs": [],
      "stateMutability": "nonpayable",
      "type": "function"
    },
    {
      "inputs": [
        {
          "internalType": "address",
          "name": "from",
          "type": "address"
        },
        {
          "internalType": "address",
          "name": "to",
          "type": "address"
        },
        {
          "internalType": "uint256",
          "name": "tokenId",
          "type": "uint256"
        },
        {
          "internalType": "bytes",
          "name": "data",
          "type": "bytes"
        }
      ],
      "name": "safeTransferFrom",
      "outputs": [],
      "stateMutability": "nonpayable",
      "type": "function"
    },
    {
      "inputs": [
        {
          "internalType": "address",
          "name": "operator",
          "type": "address"
        },
        {
          "internalType": "bool",
          "name": "approved",
          "type": "bool"
        }
      ],
      "name": "setApprovalForAll",
      "outputs": [],
      "stateMutability": "nonpayable",
      "type": "function"
    },
    {
      "inputs": [
        {
          "internalType": "bytes4",
          "name": "interfaceId",
          "type": "bytes4"
        }
      ],
      "name": "supportsInterface",
      "outputs": [
        {
          "internalType": "bool",
          "name": "",
          "type": "bool"
        }
      ],
      "stateMutability": "view",
      "type": "function"
    },
    {
      "inputs": [],
      "name": "symbol",
      "outputs": [
        {
          "internalType": "string",
          "name": "",
          "type": "string"
        }
      ],
      "stateMutability": "view",
      "type": "function"
    },
    {
      "inputs": [
        {
          "internalType": "uint256",
          "name": "tokenId",
          "type": "uint256"
        }
      ],
      "name": "tokenURI",
      "outputs": [
        {
          "internalType": "string",
          "name": "",
          "type": "string"
        }
      ],
      "stateMutability": "view",
      "type": "function"
    },
    {
      "inputs": [
        {
          "internalType": "address",
          "name": "from",
          "type": "address"
        },
        {
          "internalType": "address",
          "name": "to",
          "type": "address"
        },
        {
          "internalType": "uint256",
          "name": "tokenId",
          "type": "uint256"
        }
      ],
      "name": "transferFrom",
      "outputs": [],
      "stateMutability": "nonpayable",
      "type": "function"
    },
    {
      "inputs": [
        {
          "internalType": "uint256",
          "name": "_listingPrice",
          "type": "uint256"
        }
      ],
      "name": "updateListingPrice",
      "outputs": [],
      "stateMutability": "payable",
      "type": "function"
    }
  ],
  "bytecode": "0x608060405266038d7ea4c680006009553480156200001c57600080fd5b506040518060400160405280601081526020017f4d657461766572736520546f6b656e73000000000000000000000000000000008152506040518060400160405280600481526020017f4d455441000000000000000000000000000000000000000000000000000000008152508160009080519060200190620000a192919062000104565b508060019080519060200190620000ba92919062000104565b50505033600a60006101000a81548173ffffffffffffffffffffffffffffffffffffffff021916908373ffffffffffffffffffffffffffffffffffffffff16021790555062000219565b8280546200011290620001e3565b90600052602060002090601f01602090048101928262000136576000855562000182565b82601f106200015157805160ff191683800117855562000182565b8280016001018555821562000182579182015b828111156200018157825182559160200191906001019062000164565b5b50905062000191919062000195565b5090565b5b80821115620001b057600081600090555060010162000196565b5090565b7f4e487b7100000000000000000000000000000000000000000000000000000000600052602260045260246000fd5b60006002820490506001821680620001fc57607f821691505b60208210811415620002135762000212620001b4565b5b50919050565b61417180620002296000396000f3fe60806040526004361061012a5760003560e01c80636352211e116100ab578063ae677aa31161006f578063ae677aa3146103f7578063b88d4fde14610413578063be9af5361461043c578063c87b56dd14610458578063e219fc7514610495578063e985e9c5146104b15761012a565b80636352211e146102f957806370a082311461033657806372b3b6201461037357806395d89b41146103a3578063a22cb465146103ce5761012a565b806312e85585116100f257806312e8558514610228578063202e37401461025357806323b872dd1461027e578063260070d8146102a757806342842e0e146102d05761012a565b806301ffc9a71461012f57806306fdde031461016c578063081812fc14610197578063095ea7b3146101d45780630f08efe0146101fd575b600080fd5b34801561013b57600080fd5b5061015660048036038101906101519190612c1a565b6104ee565b6040516101639190612c62565b60405180910390f35b34801561017857600080fd5b506101816105d0565b60405161018e9190612d16565b60405180910390f35b3480156101a357600080fd5b506101be60048036038101906101b99190612d6e565b610662565b6040516101cb9190612ddc565b60405180910390f35b3480156101e057600080fd5b506101fb60048036038101906101f69190612e23565b6106a8565b005b34801561020957600080fd5b506102126107c0565b60405161021f9190612fb9565b60405180910390f35b34801561023457600080fd5b5061023d610a29565b60405161024a9190612fea565b60405180910390f35b34801561025f57600080fd5b50610268610a33565b6040516102759190612fb9565b60405180910390f35b34801561028a57600080fd5b506102a560048036038101906102a09190613005565b610d21565b005b3480156102b357600080fd5b506102ce60048036038101906102c99190612d6e565b610d81565b005b3480156102dc57600080fd5b506102f760048036038101906102f29190613005565b610f9e565b005b34801561030557600080fd5b50610320600480360381019061031b9190612d6e565b610fbe565b60405161032d9190612ddc565b60405180910390f35b34801561034257600080fd5b5061035d60048036038101906103589190613058565b611045565b60405161036a9190612fea565b60405180910390f35b61038d600480360381019061038891906131ba565b6110fd565b60405161039a9190612fea565b60405180910390f35b3480156103af57600080fd5b506103b861113f565b6040516103c59190612d16565b60405180910390f35b3480156103da57600080fd5b506103f560048036038101906103f09190613242565b6111d1565b005b610411600480360381019061040c9190612d6e565b6111e7565b005b34801561041f57600080fd5b5061043a60048036038101906104359190613323565b611281565b005b61045660048036038101906104519190612d6e565b6112e3565b005b34801561046457600080fd5b5061047f600480360381019061047a9190612d6e565b611521565b60405161048c9190612d16565b60405180910390f35b6104af60048036038101906104aa91906133a6565b611634565b005b3480156104bd57600080fd5b506104d860048036038101906104d391906133e6565b611829565b6040516104e59190612c62565b60405180910390f35b60007f80ac58cd000000000000000000000000000000000000000000000000000000007bffffffffffffffffffffffffffffffffffffffffffffffffffffffff1916827bffffffffffffffffffffffffffffffffffffffffffffffffffffffff191614806105b957507f5b5e139f000000000000000000000000000000000000000000000000000000007bffffffffffffffffffffffffffffffffffffffffffffffffffffffff1916827bffffffffffffffffffffffffffffffffffffffffffffffffffffffff1916145b806105c957506105c8826118bd565b5b9050919050565b6060600080546105df90613455565b80601f016020809104026020016040519081016040528092919081815260200182805461060b90613455565b80156106585780601f1061062d57610100808354040283529160200191610658565b820191906000526020600020905b81548152906001019060200180831161063b57829003601f168201915b5050505050905090565b600061066d82611927565b6004600083815260200190815260200160002060009054906101000a900473ffffffffffffffffffffffffffffffffffffffff169050919050565b60006106b382610fbe565b90508073ffffffffffffffffffffffffffffffffffffffff168373ffffffffffffffffffffffffffffffffffffffff161415610724576040517f08c379a000000000000000000000000000000000000000000000000000000000815260040161071b906134f9565b60405180910390fd5b8073ffffffffffffffffffffffffffffffffffffffff16610743611972565b73ffffffffffffffffffffffffffffffffffffffff16148061077257506107718161076c611972565b611829565b5b6107b1576040517f08c379a00000000000000000000000000000000000000000000000000000000081526004016107a89061358b565b60405180910390fd5b6107bb838361197a565b505050565b606060006107ce6007611a33565b905060006107dc6008611a33565b6107e66007611a33565b6107f091906135da565b90506000808267ffffffffffffffff81111561080f5761080e61308f565b5b60405190808252806020026020018201604052801561084857816020015b610835612aae565b81526020019060019003908161082d5790505b50905060005b84811015610a1e573073ffffffffffffffffffffffffffffffffffffffff16600b600060018461087e919061360e565b815260200190815260200160002060020160009054906101000a900473ffffffffffffffffffffffffffffffffffffffff1673ffffffffffffffffffffffffffffffffffffffff161415610a0b5760006001826108db919061360e565b90506000600b60008381526020019081526020016000209050806040518060a0016040529081600082015481526020016001820160009054906101000a900473ffffffffffffffffffffffffffffffffffffffff1673ffffffffffffffffffffffffffffffffffffffff1673ffffffffffffffffffffffffffffffffffffffff1681526020016002820160009054906101000a900473ffffffffffffffffffffffffffffffffffffffff1673ffffffffffffffffffffffffffffffffffffffff1673ffffffffffffffffffffffffffffffffffffffff168152602001600382015481526020016004820160009054906101000a900460ff1615151515815250508486815181106109ee576109ed613664565b5b6020026020010181905250600185610a06919061360e565b945050505b8080610a1690613693565b91505061084e565b508094505050505090565b6000600954905090565b60606000610a416007611a33565b905060008060005b83811015610aea573373ffffffffffffffffffffffffffffffffffffffff16600b6000600184610a79919061360e565b815260200190815260200160002060020160009054906101000a900473ffffffffffffffffffffffffffffffffffffffff1673ffffffffffffffffffffffffffffffffffffffff161415610ad757600183610ad4919061360e565b92505b8080610ae290613693565b915050610a49565b5060008267ffffffffffffffff811115610b0757610b0661308f565b5b604051908082528060200260200182016040528015610b4057816020015b610b2d612aae565b815260200190600190039081610b255790505b50905060005b84811015610d16573373ffffffffffffffffffffffffffffffffffffffff16600b6000600184610b76919061360e565b815260200190815260200160002060020160009054906101000a900473ffffffffffffffffffffffffffffffffffffffff1673ffffffffffffffffffffffffffffffffffffffff161415610d03576000600182610bd3919061360e565b90506000600b60008381526020019081526020016000209050806040518060a0016040529081600082015481526020016001820160009054906101000a900473ffffffffffffffffffffffffffffffffffffffff1673ffffffffffffffffffffffffffffffffffffffff1673ffffffffffffffffffffffffffffffffffffffff1681526020016002820160009054906101000a900473ffffffffffffffffffffffffffffffffffffffff1673ffffffffffffffffffffffffffffffffffffffff1673ffffffffffffffffffffffffffffffffffffffff168152602001600382015481526020016004820160009054906101000a900460ff161515151581525050848681518110610ce657610ce5613664565b5b6020026020010181905250600185610cfe919061360e565b945050505b8080610d0e90613693565b915050610b46565b508094505050505090565b610d32610d2c611972565b82611a41565b610d71576040517f08c379a0000000000000000000000000000000000000000000000000000000008152600401610d689061374e565b60405180910390fd5b610d7c838383611ad6565b505050565b3373ffffffffffffffffffffffffffffffffffffffff16600b600083815260200190815260200160002060010160009054906101000a900473ffffffffffffffffffffffffffffffffffffffff1673ffffffffffffffffffffffffffffffffffffffff1614610e25576040517f08c379a0000000000000000000000000000000000000000000000000000000008152600401610e1c906137e0565b60405180910390fd5b60001515600b600083815260200190815260200160002060040160009054906101000a900460ff16151514610e8f576040517f08c379a0000000000000000000000000000000000000000000000000000000008152600401610e869061384c565b60405180910390fd5b6000600b6000838152602001908152602001600020600301819055506000600b600083815260200190815260200160002060010160006101000a81548173ffffffffffffffffffffffffffffffffffffffff021916908373ffffffffffffffffffffffffffffffffffffffff1602179055506000600b600083815260200190815260200160002060020160006101000a81548173ffffffffffffffffffffffffffffffffffffffff021916908373ffffffffffffffffffffffffffffffffffffffff1602179055506001600b600083815260200190815260200160002060040160006101000a81548160ff021916908315150217905550610f906008611dd0565b610f9b303383611ad6565b50565b610fb983838360405180602001604052806000815250611281565b505050565b600080610fca83611de6565b9050600073ffffffffffffffffffffffffffffffffffffffff168173ffffffffffffffffffffffffffffffffffffffff16141561103c576040517f08c379a0000000000000000000000000000000000000000000000000000000008152600401611033906138b8565b60405180910390fd5b80915050919050565b60008073ffffffffffffffffffffffffffffffffffffffff168273ffffffffffffffffffffffffffffffffffffffff1614156110b6576040517f08c379a00000000000000000000000000000000000000000000000000000000081526004016110ad9061394a565b60405180910390fd5b600360008373ffffffffffffffffffffffffffffffffffffffff1673ffffffffffffffffffffffffffffffffffffffff168152602001908152602001600020549050919050565b60006111096007611dd0565b60006111156007611a33565b90506111213382611e23565b61112b8185612041565b61113581846120b5565b8091505092915050565b60606001805461114e90613455565b80601f016020809104026020016040519081016040528092919081815260200182805461117a90613455565b80156111c75780601f1061119c576101008083540402835291602001916111c7565b820191906000526020600020905b8154815290600101906020018083116111aa57829003601f168201915b5050505050905090565b6111e36111dc611972565b83836122b8565b5050565b600a60009054906101000a900473ffffffffffffffffffffffffffffffffffffffff1673ffffffffffffffffffffffffffffffffffffffff163373ffffffffffffffffffffffffffffffffffffffff1614611277576040517f08c379a000000000000000000000000000000000000000000000000000000000815260040161126e906139dc565b60405180910390fd5b8060098190555050565b61129261128c611972565b83611a41565b6112d1576040517f08c379a00000000000000000000000000000000000000000000000000000000081526004016112c89061374e565b60405180910390fd5b6112dd84848484612425565b50505050565b6000600b60008381526020019081526020016000206003015490506000600b600084815260200190815260200160002060010160009054906101000a900473ffffffffffffffffffffffffffffffffffffffff16905081341461137b576040517f08c379a000000000000000000000000000000000000000000000000000000000815260040161137290613a6e565b60405180910390fd5b33600b600085815260200190815260200160002060020160006101000a81548173ffffffffffffffffffffffffffffffffffffffff021916908373ffffffffffffffffffffffffffffffffffffffff1602179055506001600b600085815260200190815260200160002060040160006101000a81548160ff0219169083151502179055506000600b600085815260200190815260200160002060010160006101000a81548173ffffffffffffffffffffffffffffffffffffffff021916908373ffffffffffffffffffffffffffffffffffffffff16021790555061145f6008611dd0565b61146a303385611ad6565b600a60009054906101000a900473ffffffffffffffffffffffffffffffffffffffff1673ffffffffffffffffffffffffffffffffffffffff166108fc6009549081150290604051600060405180830381858888f193505050501580156114d4573d6000803e3d6000fd5b508073ffffffffffffffffffffffffffffffffffffffff166108fc349081150290604051600060405180830381858888f1935050505015801561151b573d6000803e3d6000fd5b50505050565b606061152c82611927565b600060066000848152602001908152602001600020805461154c90613455565b80601f016020809104026020016040519081016040528092919081815260200182805461157890613455565b80156115c55780601f1061159a576101008083540402835291602001916115c5565b820191906000526020600020905b8154815290600101906020018083116115a857829003601f168201915b5050505050905060006115d6612481565b90506000815114156115ec57819250505061162f565b600082511115611621578082604051602001611609929190613aca565b6040516020818303038152906040529250505061162f565b61162a84612498565b925050505b919050565b3373ffffffffffffffffffffffffffffffffffffffff16600b600084815260200190815260200160002060020160009054906101000a900473ffffffffffffffffffffffffffffffffffffffff1673ffffffffffffffffffffffffffffffffffffffff16146116d8576040517f08c379a00000000000000000000000000000000000000000000000000000000081526004016116cf906137e0565b60405180910390fd5b600954341461171c576040517f08c379a000000000000000000000000000000000000000000000000000000000815260040161171390613b60565b60405180910390fd5b80600b6000848152602001908152602001600020600301819055506000600b600084815260200190815260200160002060040160006101000a81548160ff02191690831515021790555033600b600084815260200190815260200160002060010160006101000a81548173ffffffffffffffffffffffffffffffffffffffff021916908373ffffffffffffffffffffffffffffffffffffffff16021790555030600b600084815260200190815260200160002060020160006101000a81548173ffffffffffffffffffffffffffffffffffffffff021916908373ffffffffffffffffffffffffffffffffffffffff16021790555061181a6008612500565b611825333084611ad6565b5050565b6000600560008473ffffffffffffffffffffffffffffffffffffffff1673ffffffffffffffffffffffffffffffffffffffff16815260200190815260200160002060008373ffffffffffffffffffffffffffffffffffffffff1673ffffffffffffffffffffffffffffffffffffffff16815260200190815260200160002060009054906101000a900460ff16905092915050565b60007f01ffc9a7000000000000000000000000000000000000000000000000000000007bffffffffffffffffffffffffffffffffffffffffffffffffffffffff1916827bffffffffffffffffffffffffffffffffffffffffffffffffffffffff1916149050919050565b6119308161255c565b61196f576040517f08c379a0000000000000000000000000000000000000000000000000000000008152600401611966906138b8565b60405180910390fd5b50565b600033905090565b816004600083815260200190815260200160002060006101000a81548173ffffffffffffffffffffffffffffffffffffffff021916908373ffffffffffffffffffffffffffffffffffffffff160217905550808273ffffffffffffffffffffffffffffffffffffffff166119ed83610fbe565b73ffffffffffffffffffffffffffffffffffffffff167f8c5be1e5ebec7d5bd14f71427d1e84f3dd0314c0f7b2291e5b200ac8c7c3b92560405160405180910390a45050565b600081600001549050919050565b600080611a4d83610fbe565b90508073ffffffffffffffffffffffffffffffffffffffff168473ffffffffffffffffffffffffffffffffffffffff161480611a8f5750611a8e8185611829565b5b80611acd57508373ffffffffffffffffffffffffffffffffffffffff16611ab584610662565b73ffffffffffffffffffffffffffffffffffffffff16145b91505092915050565b8273ffffffffffffffffffffffffffffffffffffffff16611af682610fbe565b73ffffffffffffffffffffffffffffffffffffffff1614611b4c576040517f08c379a0000000000000000000000000000000000000000000000000000000008152600401611b4390613bf2565b60405180910390fd5b600073ffffffffffffffffffffffffffffffffffffffff168273ffffffffffffffffffffffffffffffffffffffff161415611bbc576040517f08c379a0000000000000000000000000000000000000000000000000000000008152600401611bb390613c84565b60405180910390fd5b611bc9838383600161259d565b8273ffffffffffffffffffffffffffffffffffffffff16611be982610fbe565b73ffffffffffffffffffffffffffffffffffffffff1614611c3f576040517f08c379a0000000000000000000000000000000000000000000000000000000008152600401611c3690613bf2565b60405180910390fd5b6004600082815260200190815260200160002060006101000a81549073ffffffffffffffffffffffffffffffffffffffff02191690556001600360008573ffffffffffffffffffffffffffffffffffffffff1673ffffffffffffffffffffffffffffffffffffffff168152602001908152602001600020600082825403925050819055506001600360008473ffffffffffffffffffffffffffffffffffffffff1673ffffffffffffffffffffffffffffffffffffffff16815260200190815260200160002060008282540192505081905550816002600083815260200190815260200160002060006101000a81548173ffffffffffffffffffffffffffffffffffffffff021916908373ffffffffffffffffffffffffffffffffffffffff160217905550808273ffffffffffffffffffffffffffffffffffffffff168473ffffffffffffffffffffffffffffffffffffffff167fddf252ad1be2c89b69c2b068fc378daa952ba7f163c4a11628f55a4df523b3ef60405160405180910390a4611dcb83838360016126c3565b505050565b6001816000016000828254019250508190555050565b60006002600083815260200190815260200160002060009054906101000a900473ffffffffffffffffffffffffffffffffffffffff169050919050565b600073ffffffffffffffffffffffffffffffffffffffff168273ffffffffffffffffffffffffffffffffffffffff161415611e93576040517f08c379a0000000000000000000000000000000000000000000000000000000008152600401611e8a90613cf0565b60405180910390fd5b611e9c8161255c565b15611edc576040517f08c379a0000000000000000000000000000000000000000000000000000000008152600401611ed390613d5c565b60405180910390fd5b611eea60008383600161259d565b611ef38161255c565b15611f33576040517f08c379a0000000000000000000000000000000000000000000000000000000008152600401611f2a90613d5c565b60405180910390fd5b6001600360008473ffffffffffffffffffffffffffffffffffffffff1673ffffffffffffffffffffffffffffffffffffffff16815260200190815260200160002060008282540192505081905550816002600083815260200190815260200160002060006101000a81548173ffffffffffffffffffffffffffffffffffffffff021916908373ffffffffffffffffffffffffffffffffffffffff160217905550808273ffffffffffffffffffffffffffffffffffffffff16600073ffffffffffffffffffffffffffffffffffffffff167fddf252ad1be2c89b69c2b068fc378daa952ba7f163c4a11628f55a4df523b3ef60405160405180910390a461203d6000838360016126c3565b5050565b61204a8261255c565b612089576040517f08c379a000000000000000000000000000000000000000000000000000000000815260040161208090613dee565b60405180910390fd5b806006600084815260200190815260200160002090805190602001906120b0929190612b0b565b505050565b600081116120f8576040517f08c379a00000000000000000000000000000000000000000000000000000000081526004016120ef90613e5a565b60405180910390fd5b600954341461213c576040517f08c379a000000000000000000000000000000000000000000000000000000000815260040161213390613b60565b60405180910390fd5b6040518060a001604052808381526020013373ffffffffffffffffffffffffffffffffffffffff1681526020013073ffffffffffffffffffffffffffffffffffffffff16815260200182815260200160001515815250600b60008481526020019081526020016000206000820151816000015560208201518160010160006101000a81548173ffffffffffffffffffffffffffffffffffffffff021916908373ffffffffffffffffffffffffffffffffffffffff16021790555060408201518160020160006101000a81548173ffffffffffffffffffffffffffffffffffffffff021916908373ffffffffffffffffffffffffffffffffffffffff1602179055506060820151816003015560808201518160040160006101000a81548160ff021916908315150217905550905050612275333084611ad6565b817fb640004f1d14576d0c209e240cad0410e0d8c0c33a09375861fbadae2588a98d33308460006040516122ac9493929190613e7a565b60405180910390a25050565b8173ffffffffffffffffffffffffffffffffffffffff168373ffffffffffffffffffffffffffffffffffffffff161415612327576040517f08c379a000000000000000000000000000000000000000000000000000000000815260040161231e90613f0b565b60405180910390fd5b80600560008573ffffffffffffffffffffffffffffffffffffffff1673ffffffffffffffffffffffffffffffffffffffff16815260200190815260200160002060008473ffffffffffffffffffffffffffffffffffffffff1673ffffffffffffffffffffffffffffffffffffffff16815260200190815260200160002060006101000a81548160ff0219169083151502179055508173ffffffffffffffffffffffffffffffffffffffff168373ffffffffffffffffffffffffffffffffffffffff167f17307eab39ab6107e8899845ad3d59bd9653f200f220920489ca2b5937696c31836040516124189190612c62565b60405180910390a3505050565b612430848484611ad6565b61243c848484846126c9565b61247b576040517f08c379a000000000000000000000000000000000000000000000000000000000815260040161247290613f9d565b60405180910390fd5b50505050565b606060405180602001604052806000815250905090565b60606124a382611927565b60006124ad612481565b905060008151116124cd57604051806020016040528060008152506124f8565b806124d784612860565b6040516020016124e8929190613aca565b6040516020818303038152906040525b915050919050565b6000816000015490506000811161254c576040517f08c379a000000000000000000000000000000000000000000000000000000000815260040161254390614009565b60405180910390fd5b6001810382600001819055505050565b60008073ffffffffffffffffffffffffffffffffffffffff1661257e83611de6565b73ffffffffffffffffffffffffffffffffffffffff1614159050919050565b60018111156126bd57600073ffffffffffffffffffffffffffffffffffffffff168473ffffffffffffffffffffffffffffffffffffffff16146126315780600360008673ffffffffffffffffffffffffffffffffffffffff1673ffffffffffffffffffffffffffffffffffffffff168152602001908152602001600020600082825461262991906135da565b925050819055505b600073ffffffffffffffffffffffffffffffffffffffff168373ffffffffffffffffffffffffffffffffffffffff16146126bc5780600360008573ffffffffffffffffffffffffffffffffffffffff1673ffffffffffffffffffffffffffffffffffffffff16815260200190815260200160002060008282546126b4919061360e565b925050819055505b5b50505050565b50505050565b60006126ea8473ffffffffffffffffffffffffffffffffffffffff16612938565b15612853578373ffffffffffffffffffffffffffffffffffffffff1663150b7a02612713611972565b8786866040518563ffffffff1660e01b8152600401612735949392919061407e565b602060405180830381600087803b15801561274f57600080fd5b505af192505050801561278057506040513d601f19601f8201168201806040525081019061277d91906140df565b60015b612803573d80600081146127b0576040519150601f19603f3d011682016040523d82523d6000602084013e6127b5565b606091505b506000815114156127fb576040517f08c379a00000000000000000000000000000000000000000000000000000000081526004016127f290613f9d565b60405180910390fd5b805181602001fd5b63150b7a0260e01b7bffffffffffffffffffffffffffffffffffffffffffffffffffffffff1916817bffffffffffffffffffffffffffffffffffffffffffffffffffffffff191614915050612858565b600190505b949350505050565b60606000600161286f8461295b565b01905060008167ffffffffffffffff81111561288e5761288d61308f565b5b6040519080825280601f01601f1916602001820160405280156128c05781602001600182028036833780820191505090505b509050600082602001820190505b60011561292d578080600190039150507f3031323334353637383961626364656600000000000000000000000000000000600a86061a8153600a85816129175761291661410c565b5b04945060008514156129285761292d565b6128ce565b819350505050919050565b6000808273ffffffffffffffffffffffffffffffffffffffff163b119050919050565b600080600090507a184f03e93ff9f4daa797ed6e38ed64bf6a1f01000000000000000083106129b9577a184f03e93ff9f4daa797ed6e38ed64bf6a1f01000000000000000083816129af576129ae61410c565b5b0492506040810190505b6d04ee2d6d415b85acef810000000083106129f6576d04ee2d6d415b85acef810000000083816129ec576129eb61410c565b5b0492506020810190505b662386f26fc100008310612a2557662386f26fc100008381612a1b57612a1a61410c565b5b0492506010810190505b6305f5e1008310612a4e576305f5e1008381612a4457612a4361410c565b5b0492506008810190505b6127108310612a73576127108381612a6957612a6861410c565b5b0492506004810190505b60648310612a965760648381612a8c57612a8b61410c565b5b0492506002810190505b600a8310612aa5576001810190505b80915050919050565b6040518060a0016040528060008152602001600073ffffffffffffffffffffffffffffffffffffffff168152602001600073ffffffffffffffffffffffffffffffffffffffff168152602001600081526020016000151581525090565b828054612b1790613455565b90600052602060002090601f016020900481019282612b395760008555612b80565b82601f10612b5257805160ff1916838001178555612b80565b82800160010185558215612b80579182015b82811115612b7f578251825591602001919060010190612b64565b5b509050612b8d9190612b91565b5090565b5b80821115612baa576000816000905550600101612b92565b5090565b6000604051905090565b600080fd5b600080fd5b60007fffffffff0000000000000000000000000000000000000000000000000000000082169050919050565b612bf781612bc2565b8114612c0257600080fd5b50565b600081359050612c1481612bee565b92915050565b600060208284031215612c3057612c2f612bb8565b5b6000612c3e84828501612c05565b91505092915050565b60008115159050919050565b612c5c81612c47565b82525050565b6000602082019050612c776000830184612c53565b92915050565b600081519050919050565b600082825260208201905092915050565b60005b83811015612cb7578082015181840152602081019050612c9c565b83811115612cc6576000848401525b50505050565b6000601f19601f8301169050919050565b6000612ce882612c7d565b612cf28185612c88565b9350612d02818560208601612c99565b612d0b81612ccc565b840191505092915050565b60006020820190508181036000830152612d308184612cdd565b905092915050565b6000819050919050565b612d4b81612d38565b8114612d5657600080fd5b50565b600081359050612d6881612d42565b92915050565b600060208284031215612d8457612d83612bb8565b5b6000612d9284828501612d59565b91505092915050565b600073ffffffffffffffffffffffffffffffffffffffff82169050919050565b6000612dc682612d9b565b9050919050565b612dd681612dbb565b82525050565b6000602082019050612df16000830184612dcd565b92915050565b612e0081612dbb565b8114612e0b57600080fd5b50565b600081359050612e1d81612df7565b92915050565b60008060408385031215612e3a57612e39612bb8565b5b6000612e4885828601612e0e565b9250506020612e5985828601612d59565b9150509250929050565b600081519050919050565b600082825260208201905092915050565b6000819050602082019050919050565b612e9881612d38565b82525050565b6000612ea982612d9b565b9050919050565b612eb981612e9e565b82525050565b612ec881612c47565b82525050565b60a082016000820151612ee46000850182612e8f565b506020820151612ef76020850182612eb0565b506040820151612f0a6040850182612eb0565b506060820151612f1d6060850182612e8f565b506080820151612f306080850182612ebf565b50505050565b6000612f428383612ece565b60a08301905092915050565b6000602082019050919050565b6000612f6682612e63565b612f708185612e6e565b9350612f7b83612e7f565b8060005b83811015612fac578151612f938882612f36565b9750612f9e83612f4e565b925050600181019050612f7f565b5085935050505092915050565b60006020820190508181036000830152612fd38184612f5b565b905092915050565b612fe481612d38565b82525050565b6000602082019050612fff6000830184612fdb565b92915050565b60008060006060848603121561301e5761301d612bb8565b5b600061302c86828701612e0e565b935050602061303d86828701612e0e565b925050604061304e86828701612d59565b9150509250925092565b60006020828403121561306e5761306d612bb8565b5b600061307c84828501612e0e565b91505092915050565b600080fd5b600080fd5b7f4e487b7100000000000000000000000000000000000000000000000000000000600052604160045260246000fd5b6130c782612ccc565b810181811067ffffffffffffffff821117156130e6576130e561308f565b5b80604052505050565b60006130f9612bae565b905061310582826130be565b919050565b600067ffffffffffffffff8211156131255761312461308f565b5b61312e82612ccc565b9050602081019050919050565b82818337600083830152505050565b600061315d6131588461310a565b6130ef565b9050828152602081018484840111156131795761317861308a565b5b61318484828561313b565b509392505050565b600082601f8301126131a1576131a0613085565b5b81356131b184826020860161314a565b91505092915050565b600080604083850312156131d1576131d0612bb8565b5b600083013567ffffffffffffffff8111156131ef576131ee612bbd565b5b6131fb8582860161318c565b925050602061320c85828601612d59565b9150509250929050565b61321f81612c47565b811461322a57600080fd5b50565b60008135905061323c81613216565b92915050565b6000806040838503121561325957613258612bb8565b5b600061326785828601612e0e565b92505060206132788582860161322d565b9150509250929050565b600067ffffffffffffffff82111561329d5761329c61308f565b5b6132a682612ccc565b9050602081019050919050565b60006132c66132c184613282565b6130ef565b9050828152602081018484840111156132e2576132e161308a565b5b6132ed84828561313b565b509392505050565b600082601f83011261330a57613309613085565b5b813561331a8482602086016132b3565b91505092915050565b6000806000806080858703121561333d5761333c612bb8565b5b600061334b87828801612e0e565b945050602061335c87828801612e0e565b935050604061336d87828801612d59565b925050606085013567ffffffffffffffff81111561338e5761338d612bbd565b5b61339a878288016132f5565b91505092959194509250565b600080604083850312156133bd576133bc612bb8565b5b60006133cb85828601612d59565b92505060206133dc85828601612d59565b9150509250929050565b600080604083850312156133fd576133fc612bb8565b5b600061340b85828601612e0e565b925050602061341c85828601612e0e565b9150509250929050565b7f4e487b7100000000000000000000000000000000000000000000000000000000600052602260045260246000fd5b6000600282049050600182168061346d57607f821691505b6020821081141561348157613480613426565b5b50919050565b7f4552433732313a20617070726f76616c20746f2063757272656e74206f776e6560008201527f7200000000000000000000000000000000000000000000000000000000000000602082015250565b60006134e3602183612c88565b91506134ee82613487565b604082019050919050565b60006020820190508181036000830152613512816134d6565b9050919050565b7f4552433732313a20617070726f76652063616c6c6572206973206e6f7420746f60008201527f6b656e206f776e6572206f7220617070726f76656420666f7220616c6c000000602082015250565b6000613575603d83612c88565b915061358082613519565b604082019050919050565b600060208201905081810360008301526135a481613568565b9050919050565b7f4e487b7100000000000000000000000000000000000000000000000000000000600052601160045260246000fd5b60006135e582612d38565b91506135f083612d38565b925082821015613603576136026135ab565b5b828203905092915050565b600061361982612d38565b915061362483612d38565b9250827fffffffffffffffffffffffffffffffffffffffffffffffffffffffffffffffff03821115613659576136586135ab565b5b828201905092915050565b7f4e487b7100000000000000000000000000000000000000000000000000000000600052603260045260246000fd5b600061369e82612d38565b91507fffffffffffffffffffffffffffffffffffffffffffffffffffffffffffffffff8214156136d1576136d06135ab565b5b600182019050919050565b7f4552433732313a2063616c6c6572206973206e6f7420746f6b656e206f776e6560008201527f72206f7220617070726f76656400000000000000000000000000000000000000602082015250565b6000613738602d83612c88565b9150613743826136dc565b604082019050919050565b600060208201905081810360008301526137678161372b565b9050919050565b7f596f7520617265206e6f7420746865206f776e6572206f66207468697320746f60008201527f6b656e0000000000000000000000000000000000000000000000000000000000602082015250565b60006137ca602383612c88565b91506137d58261376e565b604082019050919050565b600060208201905081810360008301526137f9816137bd565b9050919050565b7f546f6b656e20697320616c726561647920736f6c640000000000000000000000600082015250565b6000613836601583612c88565b915061384182613800565b602082019050919050565b6000602082019050818103600083015261386581613829565b9050919050565b7f4552433732313a20696e76616c696420746f6b656e2049440000000000000000600082015250565b60006138a2601883612c88565b91506138ad8261386c565b602082019050919050565b600060208201905081810360008301526138d181613895565b9050919050565b7f4552433732313a2061646472657373207a65726f206973206e6f74206120766160008201527f6c6964206f776e65720000000000000000000000000000000000000000000000602082015250565b6000613934602983612c88565b915061393f826138d8565b604082019050919050565b6000602082019050818103600083015261396381613927565b9050919050565b7f4f6e6c79206d61726b6574706c616365206f776e65722063616e20757064617460008201527f65206c697374696e672070726963650000000000000000000000000000000000602082015250565b60006139c6602f83612c88565b91506139d18261396a565b604082019050919050565b600060208201905081810360008301526139f5816139b9565b9050919050565b7f506c65617365207375626d6974207468652061736b696e67207072696365206960008201527f6e206f7264657220746f20636f6d706c65746520746865207075726368617365602082015250565b6000613a58604083612c88565b9150613a63826139fc565b604082019050919050565b60006020820190508181036000830152613a8781613a4b565b9050919050565b600081905092915050565b6000613aa482612c7d565b613aae8185613a8e565b9350613abe818560208601612c99565b80840191505092915050565b6000613ad68285613a99565b9150613ae28284613a99565b91508190509392505050565b7f5072696365206d75737420626520657175616c20746f206c697374696e67207060008201527f7269636500000000000000000000000000000000000000000000000000000000602082015250565b6000613b4a602483612c88565b9150613b5582613aee565b604082019050919050565b60006020820190508181036000830152613b7981613b3d565b9050919050565b7f4552433732313a207472616e736665722066726f6d20696e636f72726563742060008201527f6f776e6572000000000000000000000000000000000000000000000000000000602082015250565b6000613bdc602583612c88565b9150613be782613b80565b604082019050919050565b60006020820190508181036000830152613c0b81613bcf565b9050919050565b7f4552433732313a207472616e7366657220746f20746865207a65726f2061646460008201527f7265737300000000000000000000000000000000000000000000000000000000602082015250565b6000613c6e602483612c88565b9150613c7982613c12565b604082019050919050565b60006020820190508181036000830152613c9d81613c61565b9050919050565b7f4552433732313a206d696e7420746f20746865207a65726f2061646472657373600082015250565b6000613cda602083612c88565b9150613ce582613ca4565b602082019050919050565b60006020820190508181036000830152613d0981613ccd565b9050919050565b7f4552433732313a20746f6b656e20616c7265616479206d696e74656400000000600082015250565b6000613d46601c83612c88565b9150613d5182613d10565b602082019050919050565b60006020820190508181036000830152613d7581613d39565b9050919050565b7f45524337323155524953746f726167653a2055524920736574206f66206e6f6e60008201527f6578697374656e7420746f6b656e000000000000000000000000000000000000602082015250565b6000613dd8602e83612c88565b9150613de382613d7c565b604082019050919050565b60006020820190508181036000830152613e0781613dcb565b9050919050565b7f5072696365206d7573742062652067726561746572207468616e207a65726f00600082015250565b6000613e44601f83612c88565b9150613e4f82613e0e565b602082019050919050565b60006020820190508181036000830152613e7381613e37565b9050919050565b6000608082019050613e8f6000830187612dcd565b613e9c6020830186612dcd565b613ea96040830185612fdb565b613eb66060830184612c53565b95945050505050565b7f4552433732313a20617070726f766520746f2063616c6c657200000000000000600082015250565b6000613ef5601983612c88565b9150613f0082613ebf565b602082019050919050565b60006020820190508181036000830152613f2481613ee8565b9050919050565b7f4552433732313a207472616e7366657220746f206e6f6e20455243373231526560008201527f63656976657220696d706c656d656e7465720000000000000000000000000000602082015250565b6000613f87603283612c88565b9150613f9282613f2b565b604082019050919050565b60006020820190508181036000830152613fb681613f7a565b9050919050565b7f436f756e7465723a2064656372656d656e74206f766572666c6f770000000000600082015250565b6000613ff3601b83612c88565b9150613ffe82613fbd565b602082019050919050565b6000602082019050818103600083015261402281613fe6565b9050919050565b600081519050919050565b600082825260208201905092915050565b600061405082614029565b61405a8185614034565b935061406a818560208601612c99565b61407381612ccc565b840191505092915050565b60006080820190506140936000830187612dcd565b6140a06020830186612dcd565b6140ad6040830185612fdb565b81810360608301526140bf8184614045565b905095945050505050565b6000815190506140d981612bee565b92915050565b6000602082840312156140f5576140f4612bb8565b5b6000614103848285016140ca565b91505092915050565b7f4e487b7100000000000000000000000000000000000000000000000000000000600052601260045260246000fdfea2646970667358221220883b265268506838eac8aec066c6d3b172b2878bbb1675878e7675652a7f591c64736f6c63430008090033",
  "linkReferences": {},
  "deployedLinkReferences": {}
}