{
  "_format": "hh-sol-artifact-1",
  "contractName": "NFTMarketplace",
  "sourceName": "contracts/NFTMarket.sol",
  "abi": [
    {
      "inputs": [],
      "stateMutability": "nonpayable",
      "type": "constructor"
    },
    {
      "anonymous": false,
      "inputs": [
        {
          "indexed": true,
          "internalType": "address",
          "name": "owner",
          "type": "address"
        },
        {
          "indexed": true,
          "internalType": "address",
          "name": "approved",
          "type": "address"
        },
        {
          "indexed": true,
          "internalType": "uint256",
          "name": "tokenId",
          "type": "uint256"
        }
      ],
      "name": "Approval",
      "type": "event"
    },
    {
      "anonymous": false,
      "inputs": [
        {
          "indexed": true,
          "internalType": "address",
          "name": "owner",
          "type": "address"
        },
        {
          "indexed": true,
          "internalType": "address",
          "name": "operator",
          "type": "address"
        },
        {
          "indexed": false,
          "internalType": "bool",
          "name": "approved",
          "type": "bool"
        }
      ],
      "name": "ApprovalForAll",
      "type": "event"
    },
    {
      "anonymous": false,
      "inputs": [
        {
          "indexed": true,
          "internalType": "uint256",
          "name": "tokenId",
          "type": "uint256"
        },
        {
          "indexed": false,
          "internalType": "address",
          "name": "seller",
          "type": "address"
        },
        {
          "indexed": false,
          "internalType": "address",
          "name": "owner",
          "type": "address"
        },
        {
          "indexed": false,
          "internalType": "uint256",
          "name": "price",
          "type": "uint256"
        },
        {
          "indexed": false,
          "internalType": "bool",
          "name": "sold",
          "type": "bool"
        }
      ],
      "name": "MarketItemCreated",
      "type": "event"
    },
    {
      "anonymous": false,
      "inputs": [
        {
          "indexed": true,
          "internalType": "address",
          "name": "from",
          "type": "address"
        },
        {
          "indexed": true,
          "internalType": "address",
          "name": "to",
          "type": "address"
        },
        {
          "indexed": true,
          "internalType": "uint256",
          "name": "tokenId",
          "type": "uint256"
        }
      ],
      "name": "Transfer",
      "type": "event"
    },
    {
      "inputs": [
        {
          "internalType": "address",
          "name": "to",
          "type": "address"
        },
        {
          "internalType": "uint256",
          "name": "tokenId",
          "type": "uint256"
        }
      ],
      "name": "approve",
      "outputs": [],
      "stateMutability": "nonpayable",
      "type": "function"
    },
    {
      "inputs": [
        {
          "internalType": "address",
          "name": "owner",
          "type": "address"
        }
      ],
      "name": "balanceOf",
      "outputs": [
        {
          "internalType": "uint256",
          "name": "",
          "type": "uint256"
        }
      ],
      "stateMutability": "view",
      "type": "function"
    },
    {
      "inputs": [
        {
          "internalType": "uint256",
          "name": "tokenId",
          "type": "uint256"
        }
      ],
      "name": "cancelItemListing",
      "outputs": [],
      "stateMutability": "nonpayable",
      "type": "function"
    },
    {
      "inputs": [
        {
          "internalType": "uint256",
          "name": "tokenId",
          "type": "uint256"
        }
      ],
      "name": "createMarketSale",
      "outputs": [],
      "stateMutability": "payable",
      "type": "function"
    },
    {
      "inputs": [
        {
          "internalType": "string",
          "name": "tokenURI",
          "type": "string"
        },
        {
          "internalType": "uint256",
          "name": "price",
          "type": "uint256"
        }
      ],
      "name": "createToken",
      "outputs": [
        {
          "internalType": "uint256",
          "name": "",
          "type": "uint256"
        }
      ],
      "stateMutability": "payable",
      "type": "function"
    },
    {
      "inputs": [],
      "name": "fetchItemsListed",
      "outputs": [
        {
          "components": [
            {
              "internalType": "uint256",
              "name": "tokenId",
              "type": "uint256"
            },
            {
              "internalType": "address payable",
              "name": "seller",
              "type": "address"
            },
            {
              "internalType": "address payable",
              "name": "owner",
              "type": "address"
            },
            {
              "internalType": "uint256",
              "name": "price",
              "type": "uint256"
            },
            {
              "internalType": "bool",
              "name": "sold",
              "type": "bool"
            }
          ],
          "internalType": "struct NFTMarketplace.MarketItem[]",
          "name": "",
          "type": "tuple[]"
        }
      ],
      "stateMutability": "view",
      "type": "function"
    },
    {
      "inputs": [],
      "name": "fetchMarketItems",
      "outputs": [
        {
          "components": [
            {
              "internalType": "uint256",
              "name": "tokenId",
              "type": "uint256"
            },
            {
              "internalType": "address payable",
              "name": "seller",
              "type": "address"
            },
            {
              "internalType": "address payable",
              "name": "owner",
              "type": "address"
            },
            {
              "internalType": "uint256",
              "name": "price",
              "type": "uint256"
            },
            {
              "internalType": "bool",
              "name": "sold",
              "type": "bool"
            }
          ],
          "internalType": "struct NFTMarketplace.MarketItem[]",
          "name": "",
          "type": "tuple[]"
        }
      ],
      "stateMutability": "view",
      "type": "function"
    },
    {
      "inputs": [],
      "name": "fetchMyNFTs",
      "outputs": [
        {
          "components": [
            {
              "internalType": "uint256",
              "name": "tokenId",
              "type": "uint256"
            },
            {
              "internalType": "address payable",
              "name": "seller",
              "type": "address"
            },
            {
              "internalType": "address payable",
              "name": "owner",
              "type": "address"
            },
            {
              "internalType": "uint256",
              "name": "price",
              "type": "uint256"
            },
            {
              "internalType": "bool",
              "name": "sold",
              "type": "bool"
            }
          ],
          "internalType": "struct NFTMarketplace.MarketItem[]",
          "name": "",
          "type": "tuple[]"
        }
      ],
      "stateMutability": "view",
      "type": "function"
    },
    {
      "inputs": [
        {
          "internalType": "uint256",
          "name": "tokenId",
          "type": "uint256"
        }
      ],
      "name": "getApproved",
      "outputs": [
        {
          "internalType": "address",
          "name": "",
          "type": "address"
        }
      ],
      "stateMutability": "view",
      "type": "function"
    },
    {
      "inputs": [],
      "name": "getListingPrice",
      "outputs": [
        {
          "internalType": "uint256",
          "name": "",
          "type": "uint256"
        }
      ],
      "stateMutability": "view",
      "type": "function"
    },
    {
      "inputs": [
        {
          "internalType": "address",
          "name": "owner",
          "type": "address"
        },
        {
          "internalType": "address",
          "name": "operator",
          "type": "address"
        }
      ],
      "name": "isApprovedForAll",
      "outputs": [
        {
          "internalType": "bool",
          "name": "",
          "type": "bool"
        }
      ],
      "stateMutability": "view",
      "type": "function"
    },
    {
      "inputs": [],
      "name": "name",
      "outputs": [
        {
          "internalType": "string",
          "name": "",
          "type": "string"
        }
      ],
      "stateMutability": "view",
      "type": "function"
    },
    {
      "inputs": [
        {
          "internalType": "uint256",
          "name": "tokenId",
          "type": "uint256"
        }
      ],
      "name": "ownerOf",
      "outputs": [
        {
          "internalType": "address",
          "name": "",
          "type": "address"
        }
      ],
      "stateMutability": "view",
      "type": "function"
    },
    {
      "inputs": [
        {
          "internalType": "uint256",
          "name": "tokenId",
          "type": "uint256"
        },
        {
          "internalType": "uint256",
          "name": "price",
          "type": "uint256"
        }
      ],
      "name": "resellToken",
      "outputs": [],
      "stateMutability": "payable",
      "type": "function"
    },
    {
      "inputs": [
        {
          "internalType": "address",
          "name": "from",
          "type": "address"
        },
        {
          "internalType": "address",
          "name": "to",
          "type": "address"
        },
        {
          "internalType": "uint256",
          "name": "tokenId",
          "type": "uint256"
        }
      ],
      "name": "safeTransferFrom",
      "outputs": [],
      "stateMutability": "nonpayable",
      "type": "function"
    },
    {
      "inputs": [
        {
          "internalType": "address",
          "name": "from",
          "type": "address"
        },
        {
          "internalType": "address",
          "name": "to",
          "type": "address"
        },
        {
          "internalType": "uint256",
          "name": "tokenId",
          "type": "uint256"
        },
        {
          "internalType": "bytes",
          "name": "data",
          "type": "bytes"
        }
      ],
      "name": "safeTransferFrom",
      "outputs": [],
      "stateMutability": "nonpayable",
      "type": "function"
    },
    {
      "inputs": [
        {
          "internalType": "address",
          "name": "operator",
          "type": "address"
        },
        {
          "internalType": "bool",
          "name": "approved",
          "type": "bool"
        }
      ],
      "name": "setApprovalForAll",
      "outputs": [],
      "stateMutability": "nonpayable",
      "type": "function"
    },
    {
      "inputs": [
        {
          "internalType": "bytes4",
          "name": "interfaceId",
          "type": "bytes4"
        }
      ],
      "name": "supportsInterface",
      "outputs": [
        {
          "internalType": "bool",
          "name": "",
          "type": "bool"
        }
      ],
      "stateMutability": "view",
      "type": "function"
    },
    {
      "inputs": [],
      "name": "symbol",
      "outputs": [
        {
          "internalType": "string",
          "name": "",
          "type": "string"
        }
      ],
      "stateMutability": "view",
      "type": "function"
    },
    {
      "inputs": [
        {
          "internalType": "uint256",
          "name": "tokenId",
          "type": "uint256"
        }
      ],
      "name": "tokenURI",
      "outputs": [
        {
          "internalType": "string",
          "name": "",
          "type": "string"
        }
      ],
      "stateMutability": "view",
      "type": "function"
    },
    {
      "inputs": [
        {
          "internalType": "address",
          "name": "from",
          "type": "address"
        },
        {
          "internalType": "address",
          "name": "to",
          "type": "address"
        },
        {
          "internalType": "uint256",
          "name": "tokenId",
          "type": "uint256"
        }
      ],
      "name": "transferFrom",
      "outputs": [],
      "stateMutability": "nonpayable",
      "type": "function"
    },
    {
      "inputs": [
        {
          "internalType": "uint256",
          "name": "_listingPrice",
          "type": "uint256"
        }
      ],
      "name": "updateListingPrice",
      "outputs": [],
      "stateMutability": "payable",
      "type": "function"
    }
  ],
  "bytecode": "0x608060405266038d7ea4c680006009553480156200001c57600080fd5b506040518060400160405280601081526020017f4d657461766572736520546f6b656e73000000000000000000000000000000008152506040518060400160405280600481526020017f4d455441000000000000000000000000000000000000000000000000000000008152508160009080519060200190620000a192919062000104565b508060019080519060200190620000ba92919062000104565b50505033600a60006101000a81548173ffffffffffffffffffffffffffffffffffffffff021916908373ffffffffffffffffffffffffffffffffffffffff16021790555062000219565b8280546200011290620001e3565b90600052602060002090601f01602090048101928262000136576000855562000182565b82601f106200015157805160ff191683800117855562000182565b8280016001018555821562000182579182015b828111156200018157825182559160200191906001019062000164565b5b50905062000191919062000195565b5090565b5b80821115620001b057600081600090555060010162000196565b5090565b7f4e487b7100000000000000000000000000000000000000000000000000000000600052602260045260246000fd5b60006002820490506001821680620001fc57607f821691505b60208210811415620002135762000212620001b4565b5b50919050565b61449580620002296000396000f3fe6080604052600436106101355760003560e01c80636352211e116100ab578063ae677aa31161006f578063ae677aa31461042d578063b88d4fde14610449578063be9af53614610472578063c87b56dd1461048e578063e219fc75146104cb578063e985e9c5146104e757610135565b80636352211e1461032f57806370a082311461036c57806372b3b620146103a957806395d89b41146103d9578063a22cb4651461040457610135565b806312e85585116100fd57806312e8558514610233578063202e37401461025e57806323b872dd14610289578063260070d8146102b257806342842e0e146102db57806345f8fa801461030457610135565b806301ffc9a71461013a57806306fdde0314610177578063081812fc146101a2578063095ea7b3146101df5780630f08efe014610208575b600080fd5b34801561014657600080fd5b50610161600480360381019061015c9190612f3e565b610524565b60405161016e9190612f86565b60405180910390f35b34801561018357600080fd5b5061018c610606565b604051610199919061303a565b60405180910390f35b3480156101ae57600080fd5b506101c960048036038101906101c49190613092565b610698565b6040516101d69190613100565b60405180910390f35b3480156101eb57600080fd5b5061020660048036038101906102019190613147565b6106de565b005b34801561021457600080fd5b5061021d6107f6565b60405161022a91906132dd565b60405180910390f35b34801561023f57600080fd5b50610248610a5f565b604051610255919061330e565b60405180910390f35b34801561026a57600080fd5b50610273610a69565b60405161028091906132dd565b60405180910390f35b34801561029557600080fd5b506102b060048036038101906102ab9190613329565b610d57565b005b3480156102be57600080fd5b506102d960048036038101906102d49190613092565b610db7565b005b3480156102e757600080fd5b5061030260048036038101906102fd9190613329565b610fd4565b005b34801561031057600080fd5b50610319610ff4565b60405161032691906132dd565b60405180910390f35b34801561033b57600080fd5b5061035660048036038101906103519190613092565b6112e2565b6040516103639190613100565b60405180910390f35b34801561037857600080fd5b50610393600480360381019061038e919061337c565b611369565b6040516103a0919061330e565b60405180910390f35b6103c360048036038101906103be91906134de565b611421565b6040516103d0919061330e565b60405180910390f35b3480156103e557600080fd5b506103ee611463565b6040516103fb919061303a565b60405180910390f35b34801561041057600080fd5b5061042b60048036038101906104269190613566565b6114f5565b005b61044760048036038101906104429190613092565b61150b565b005b34801561045557600080fd5b50610470600480360381019061046b9190613647565b6115a5565b005b61048c60048036038101906104879190613092565b611607565b005b34801561049a57600080fd5b506104b560048036038101906104b09190613092565b611845565b6040516104c2919061303a565b60405180910390f35b6104e560048036038101906104e091906136ca565b611958565b005b3480156104f357600080fd5b5061050e6004803603810190610509919061370a565b611b4d565b60405161051b9190612f86565b60405180910390f35b60007f80ac58cd000000000000000000000000000000000000000000000000000000007bffffffffffffffffffffffffffffffffffffffffffffffffffffffff1916827bffffffffffffffffffffffffffffffffffffffffffffffffffffffff191614806105ef57507f5b5e139f000000000000000000000000000000000000000000000000000000007bffffffffffffffffffffffffffffffffffffffffffffffffffffffff1916827bffffffffffffffffffffffffffffffffffffffffffffffffffffffff1916145b806105ff57506105fe82611be1565b5b9050919050565b60606000805461061590613779565b80601f016020809104026020016040519081016040528092919081815260200182805461064190613779565b801561068e5780601f106106635761010080835404028352916020019161068e565b820191906000526020600020905b81548152906001019060200180831161067157829003601f168201915b5050505050905090565b60006106a382611c4b565b6004600083815260200190815260200160002060009054906101000a900473ffffffffffffffffffffffffffffffffffffffff169050919050565b60006106e9826112e2565b90508073ffffffffffffffffffffffffffffffffffffffff168373ffffffffffffffffffffffffffffffffffffffff16141561075a576040517f08c379a00000000000000000000000000000000000000000000000000000000081526004016107519061381d565b60405180910390fd5b8073ffffffffffffffffffffffffffffffffffffffff16610779611c96565b73ffffffffffffffffffffffffffffffffffffffff1614806107a857506107a7816107a2611c96565b611b4d565b5b6107e7576040517f08c379a00000000000000000000000000000000000000000000000000000000081526004016107de906138af565b60405180910390fd5b6107f18383611c9e565b505050565b606060006108046007611d57565b905060006108126008611d57565b61081c6007611d57565b61082691906138fe565b90506000808267ffffffffffffffff811115610845576108446133b3565b5b60405190808252806020026020018201604052801561087e57816020015b61086b612dd2565b8152602001906001900390816108635790505b50905060005b84811015610a54573073ffffffffffffffffffffffffffffffffffffffff16600b60006001846108b49190613932565b815260200190815260200160002060020160009054906101000a900473ffffffffffffffffffffffffffffffffffffffff1673ffffffffffffffffffffffffffffffffffffffff161415610a415760006001826109119190613932565b90506000600b60008381526020019081526020016000209050806040518060a0016040529081600082015481526020016001820160009054906101000a900473ffffffffffffffffffffffffffffffffffffffff1673ffffffffffffffffffffffffffffffffffffffff1673ffffffffffffffffffffffffffffffffffffffff1681526020016002820160009054906101000a900473ffffffffffffffffffffffffffffffffffffffff1673ffffffffffffffffffffffffffffffffffffffff1673ffffffffffffffffffffffffffffffffffffffff168152602001600382015481526020016004820160009054906101000a900460ff161515151581525050848681518110610a2457610a23613988565b5b6020026020010181905250600185610a3c9190613932565b945050505b8080610a4c906139b7565b915050610884565b508094505050505090565b6000600954905090565b60606000610a776007611d57565b905060008060005b83811015610b20573373ffffffffffffffffffffffffffffffffffffffff16600b6000600184610aaf9190613932565b815260200190815260200160002060020160009054906101000a900473ffffffffffffffffffffffffffffffffffffffff1673ffffffffffffffffffffffffffffffffffffffff161415610b0d57600183610b0a9190613932565b92505b8080610b18906139b7565b915050610a7f565b5060008267ffffffffffffffff811115610b3d57610b3c6133b3565b5b604051908082528060200260200182016040528015610b7657816020015b610b63612dd2565b815260200190600190039081610b5b5790505b50905060005b84811015610d4c573373ffffffffffffffffffffffffffffffffffffffff16600b6000600184610bac9190613932565b815260200190815260200160002060020160009054906101000a900473ffffffffffffffffffffffffffffffffffffffff1673ffffffffffffffffffffffffffffffffffffffff161415610d39576000600182610c099190613932565b90506000600b60008381526020019081526020016000209050806040518060a0016040529081600082015481526020016001820160009054906101000a900473ffffffffffffffffffffffffffffffffffffffff1673ffffffffffffffffffffffffffffffffffffffff1673ffffffffffffffffffffffffffffffffffffffff1681526020016002820160009054906101000a900473ffffffffffffffffffffffffffffffffffffffff1673ffffffffffffffffffffffffffffffffffffffff1673ffffffffffffffffffffffffffffffffffffffff168152602001600382015481526020016004820160009054906101000a900460ff161515151581525050848681518110610d1c57610d1b613988565b5b6020026020010181905250600185610d349190613932565b945050505b8080610d44906139b7565b915050610b7c565b508094505050505090565b610d68610d62611c96565b82611d65565b610da7576040517f08c379a0000000000000000000000000000000000000000000000000000000008152600401610d9e90613a72565b60405180910390fd5b610db2838383611dfa565b505050565b3373ffffffffffffffffffffffffffffffffffffffff16600b600083815260200190815260200160002060010160009054906101000a900473ffffffffffffffffffffffffffffffffffffffff1673ffffffffffffffffffffffffffffffffffffffff1614610e5b576040517f08c379a0000000000000000000000000000000000000000000000000000000008152600401610e5290613b04565b60405180910390fd5b60001515600b600083815260200190815260200160002060040160009054906101000a900460ff16151514610ec5576040517f08c379a0000000000000000000000000000000000000000000000000000000008152600401610ebc90613b70565b60405180910390fd5b6000600b6000838152602001908152602001600020600301819055506000600b600083815260200190815260200160002060010160006101000a81548173ffffffffffffffffffffffffffffffffffffffff021916908373ffffffffffffffffffffffffffffffffffffffff1602179055506000600b600083815260200190815260200160002060020160006101000a81548173ffffffffffffffffffffffffffffffffffffffff021916908373ffffffffffffffffffffffffffffffffffffffff1602179055506001600b600083815260200190815260200160002060040160006101000a81548160ff021916908315150217905550610fc660086120f4565b610fd1303383611dfa565b50565b610fef838383604051806020016040528060008152506115a5565b505050565b606060006110026007611d57565b905060008060005b838110156110ab573373ffffffffffffffffffffffffffffffffffffffff16600b600060018461103a9190613932565b815260200190815260200160002060010160009054906101000a900473ffffffffffffffffffffffffffffffffffffffff1673ffffffffffffffffffffffffffffffffffffffff161415611098576001836110959190613932565b92505b80806110a3906139b7565b91505061100a565b5060008267ffffffffffffffff8111156110c8576110c76133b3565b5b60405190808252806020026020018201604052801561110157816020015b6110ee612dd2565b8152602001906001900390816110e65790505b50905060005b848110156112d7573373ffffffffffffffffffffffffffffffffffffffff16600b60006001846111379190613932565b815260200190815260200160002060010160009054906101000a900473ffffffffffffffffffffffffffffffffffffffff1673ffffffffffffffffffffffffffffffffffffffff1614156112c45760006001826111949190613932565b90506000600b60008381526020019081526020016000209050806040518060a0016040529081600082015481526020016001820160009054906101000a900473ffffffffffffffffffffffffffffffffffffffff1673ffffffffffffffffffffffffffffffffffffffff1673ffffffffffffffffffffffffffffffffffffffff1681526020016002820160009054906101000a900473ffffffffffffffffffffffffffffffffffffffff1673ffffffffffffffffffffffffffffffffffffffff1673ffffffffffffffffffffffffffffffffffffffff168152602001600382015481526020016004820160009054906101000a900460ff1615151515815250508486815181106112a7576112a6613988565b5b60200260200101819052506001856112bf9190613932565b945050505b80806112cf906139b7565b915050611107565b508094505050505090565b6000806112ee8361210a565b9050600073ffffffffffffffffffffffffffffffffffffffff168173ffffffffffffffffffffffffffffffffffffffff161415611360576040517f08c379a000000000000000000000000000000000000000000000000000000000815260040161135790613bdc565b60405180910390fd5b80915050919050565b60008073ffffffffffffffffffffffffffffffffffffffff168273ffffffffffffffffffffffffffffffffffffffff1614156113da576040517f08c379a00000000000000000000000000000000000000000000000000000000081526004016113d190613c6e565b60405180910390fd5b600360008373ffffffffffffffffffffffffffffffffffffffff1673ffffffffffffffffffffffffffffffffffffffff168152602001908152602001600020549050919050565b600061142d60076120f4565b60006114396007611d57565b90506114453382612147565b61144f8185612365565b61145981846123d9565b8091505092915050565b60606001805461147290613779565b80601f016020809104026020016040519081016040528092919081815260200182805461149e90613779565b80156114eb5780601f106114c0576101008083540402835291602001916114eb565b820191906000526020600020905b8154815290600101906020018083116114ce57829003601f168201915b5050505050905090565b611507611500611c96565b83836125dc565b5050565b600a60009054906101000a900473ffffffffffffffffffffffffffffffffffffffff1673ffffffffffffffffffffffffffffffffffffffff163373ffffffffffffffffffffffffffffffffffffffff161461159b576040517f08c379a000000000000000000000000000000000000000000000000000000000815260040161159290613d00565b60405180910390fd5b8060098190555050565b6115b66115b0611c96565b83611d65565b6115f5576040517f08c379a00000000000000000000000000000000000000000000000000000000081526004016115ec90613a72565b60405180910390fd5b61160184848484612749565b50505050565b6000600b60008381526020019081526020016000206003015490506000600b600084815260200190815260200160002060010160009054906101000a900473ffffffffffffffffffffffffffffffffffffffff16905081341461169f576040517f08c379a000000000000000000000000000000000000000000000000000000000815260040161169690613d92565b60405180910390fd5b33600b600085815260200190815260200160002060020160006101000a81548173ffffffffffffffffffffffffffffffffffffffff021916908373ffffffffffffffffffffffffffffffffffffffff1602179055506001600b600085815260200190815260200160002060040160006101000a81548160ff0219169083151502179055506000600b600085815260200190815260200160002060010160006101000a81548173ffffffffffffffffffffffffffffffffffffffff021916908373ffffffffffffffffffffffffffffffffffffffff16021790555061178360086120f4565b61178e303385611dfa565b600a60009054906101000a900473ffffffffffffffffffffffffffffffffffffffff1673ffffffffffffffffffffffffffffffffffffffff166108fc6009549081150290604051600060405180830381858888f193505050501580156117f8573d6000803e3d6000fd5b508073ffffffffffffffffffffffffffffffffffffffff166108fc349081150290604051600060405180830381858888f1935050505015801561183f573d6000803e3d6000fd5b50505050565b606061185082611c4b565b600060066000848152602001908152602001600020805461187090613779565b80601f016020809104026020016040519081016040528092919081815260200182805461189c90613779565b80156118e95780601f106118be576101008083540402835291602001916118e9565b820191906000526020600020905b8154815290600101906020018083116118cc57829003601f168201915b5050505050905060006118fa6127a5565b9050600081511415611910578192505050611953565b60008251111561194557808260405160200161192d929190613dee565b60405160208183030381529060405292505050611953565b61194e846127bc565b925050505b919050565b3373ffffffffffffffffffffffffffffffffffffffff16600b600084815260200190815260200160002060020160009054906101000a900473ffffffffffffffffffffffffffffffffffffffff1673ffffffffffffffffffffffffffffffffffffffff16146119fc576040517f08c379a00000000000000000000000000000000000000000000000000000000081526004016119f390613b04565b60405180910390fd5b6009543414611a40576040517f08c379a0000000000000000000000000000000000000000000000000000000008152600401611a3790613e84565b60405180910390fd5b80600b6000848152602001908152602001600020600301819055506000600b600084815260200190815260200160002060040160006101000a81548160ff02191690831515021790555033600b600084815260200190815260200160002060010160006101000a81548173ffffffffffffffffffffffffffffffffffffffff021916908373ffffffffffffffffffffffffffffffffffffffff16021790555030600b600084815260200190815260200160002060020160006101000a81548173ffffffffffffffffffffffffffffffffffffffff021916908373ffffffffffffffffffffffffffffffffffffffff160217905550611b3e6008612824565b611b49333084611dfa565b5050565b6000600560008473ffffffffffffffffffffffffffffffffffffffff1673ffffffffffffffffffffffffffffffffffffffff16815260200190815260200160002060008373ffffffffffffffffffffffffffffffffffffffff1673ffffffffffffffffffffffffffffffffffffffff16815260200190815260200160002060009054906101000a900460ff16905092915050565b60007f01ffc9a7000000000000000000000000000000000000000000000000000000007bffffffffffffffffffffffffffffffffffffffffffffffffffffffff1916827bffffffffffffffffffffffffffffffffffffffffffffffffffffffff1916149050919050565b611c5481612880565b611c93576040517f08c379a0000000000000000000000000000000000000000000000000000000008152600401611c8a90613bdc565b60405180910390fd5b50565b600033905090565b816004600083815260200190815260200160002060006101000a81548173ffffffffffffffffffffffffffffffffffffffff021916908373ffffffffffffffffffffffffffffffffffffffff160217905550808273ffffffffffffffffffffffffffffffffffffffff16611d11836112e2565b73ffffffffffffffffffffffffffffffffffffffff167f8c5be1e5ebec7d5bd14f71427d1e84f3dd0314c0f7b2291e5b200ac8c7c3b92560405160405180910390a45050565b600081600001549050919050565b600080611d71836112e2565b90508073ffffffffffffffffffffffffffffffffffffffff168473ffffffffffffffffffffffffffffffffffffffff161480611db35750611db28185611b4d565b5b80611df157508373ffffffffffffffffffffffffffffffffffffffff16611dd984610698565b73ffffffffffffffffffffffffffffffffffffffff16145b91505092915050565b8273ffffffffffffffffffffffffffffffffffffffff16611e1a826112e2565b73ffffffffffffffffffffffffffffffffffffffff1614611e70576040517f08c379a0000000000000000000000000000000000000000000000000000000008152600401611e6790613f16565b60405180910390fd5b600073ffffffffffffffffffffffffffffffffffffffff168273ffffffffffffffffffffffffffffffffffffffff161415611ee0576040517f08c379a0000000000000000000000000000000000000000000000000000000008152600401611ed790613fa8565b60405180910390fd5b611eed83838360016128c1565b8273ffffffffffffffffffffffffffffffffffffffff16611f0d826112e2565b73ffffffffffffffffffffffffffffffffffffffff1614611f63576040517f08c379a0000000000000000000000000000000000000000000000000000000008152600401611f5a90613f16565b60405180910390fd5b6004600082815260200190815260200160002060006101000a81549073ffffffffffffffffffffffffffffffffffffffff02191690556001600360008573ffffffffffffffffffffffffffffffffffffffff1673ffffffffffffffffffffffffffffffffffffffff168152602001908152602001600020600082825403925050819055506001600360008473ffffffffffffffffffffffffffffffffffffffff1673ffffffffffffffffffffffffffffffffffffffff16815260200190815260200160002060008282540192505081905550816002600083815260200190815260200160002060006101000a81548173ffffffffffffffffffffffffffffffffffffffff021916908373ffffffffffffffffffffffffffffffffffffffff160217905550808273ffffffffffffffffffffffffffffffffffffffff168473ffffffffffffffffffffffffffffffffffffffff167fddf252ad1be2c89b69c2b068fc378daa952ba7f163c4a11628f55a4df523b3ef60405160405180910390a46120ef83838360016129e7565b505050565b6001816000016000828254019250508190555050565b60006002600083815260200190815260200160002060009054906101000a900473ffffffffffffffffffffffffffffffffffffffff169050919050565b600073ffffffffffffffffffffffffffffffffffffffff168273ffffffffffffffffffffffffffffffffffffffff1614156121b7576040517f08c379a00000000000000000000000000000000000000000000000000000000081526004016121ae90614014565b60405180910390fd5b6121c081612880565b15612200576040517f08c379a00000000000000000000000000000000000000000000000000000000081526004016121f790614080565b60405180910390fd5b61220e6000838360016128c1565b61221781612880565b15612257576040517f08c379a000000000000000000000000000000000000000000000000000000000815260040161224e90614080565b60405180910390fd5b6001600360008473ffffffffffffffffffffffffffffffffffffffff1673ffffffffffffffffffffffffffffffffffffffff16815260200190815260200160002060008282540192505081905550816002600083815260200190815260200160002060006101000a81548173ffffffffffffffffffffffffffffffffffffffff021916908373ffffffffffffffffffffffffffffffffffffffff160217905550808273ffffffffffffffffffffffffffffffffffffffff16600073ffffffffffffffffffffffffffffffffffffffff167fddf252ad1be2c89b69c2b068fc378daa952ba7f163c4a11628f55a4df523b3ef60405160405180910390a46123616000838360016129e7565b5050565b61236e82612880565b6123ad576040517f08c379a00000000000000000000000000000000000000000000000000000000081526004016123a490614112565b60405180910390fd5b806006600084815260200190815260200160002090805190602001906123d4929190612e2f565b505050565b6000811161241c576040517f08c379a00000000000000000000000000000000000000000000000000000000081526004016124139061417e565b60405180910390fd5b6009543414612460576040517f08c379a000000000000000000000000000000000000000000000000000000000815260040161245790613e84565b60405180910390fd5b6040518060a001604052808381526020013373ffffffffffffffffffffffffffffffffffffffff1681526020013073ffffffffffffffffffffffffffffffffffffffff16815260200182815260200160001515815250600b60008481526020019081526020016000206000820151816000015560208201518160010160006101000a81548173ffffffffffffffffffffffffffffffffffffffff021916908373ffffffffffffffffffffffffffffffffffffffff16021790555060408201518160020160006101000a81548173ffffffffffffffffffffffffffffffffffffffff021916908373ffffffffffffffffffffffffffffffffffffffff1602179055506060820151816003015560808201518160040160006101000a81548160ff021916908315150217905550905050612599333084611dfa565b817fb640004f1d14576d0c209e240cad0410e0d8c0c33a09375861fbadae2588a98d33308460006040516125d0949392919061419e565b60405180910390a25050565b8173ffffffffffffffffffffffffffffffffffffffff168373ffffffffffffffffffffffffffffffffffffffff16141561264b576040517f08c379a00000000000000000000000000000000000000000000000000000000081526004016126429061422f565b60405180910390fd5b80600560008573ffffffffffffffffffffffffffffffffffffffff1673ffffffffffffffffffffffffffffffffffffffff16815260200190815260200160002060008473ffffffffffffffffffffffffffffffffffffffff1673ffffffffffffffffffffffffffffffffffffffff16815260200190815260200160002060006101000a81548160ff0219169083151502179055508173ffffffffffffffffffffffffffffffffffffffff168373ffffffffffffffffffffffffffffffffffffffff167f17307eab39ab6107e8899845ad3d59bd9653f200f220920489ca2b5937696c318360405161273c9190612f86565b60405180910390a3505050565b612754848484611dfa565b612760848484846129ed565b61279f576040517f08c379a0000000000000000000000000000000000000000000000000000000008152600401612796906142c1565b60405180910390fd5b50505050565b606060405180602001604052806000815250905090565b60606127c782611c4b565b60006127d16127a5565b905060008151116127f1576040518060200160405280600081525061281c565b806127fb84612b84565b60405160200161280c929190613dee565b6040516020818303038152906040525b915050919050565b60008160000154905060008111612870576040517f08c379a00000000000000000000000000000000000000000000000000000000081526004016128679061432d565b60405180910390fd5b6001810382600001819055505050565b60008073ffffffffffffffffffffffffffffffffffffffff166128a28361210a565b73ffffffffffffffffffffffffffffffffffffffff1614159050919050565b60018111156129e157600073ffffffffffffffffffffffffffffffffffffffff168473ffffffffffffffffffffffffffffffffffffffff16146129555780600360008673ffffffffffffffffffffffffffffffffffffffff1673ffffffffffffffffffffffffffffffffffffffff168152602001908152602001600020600082825461294d91906138fe565b925050819055505b600073ffffffffffffffffffffffffffffffffffffffff168373ffffffffffffffffffffffffffffffffffffffff16146129e05780600360008573ffffffffffffffffffffffffffffffffffffffff1673ffffffffffffffffffffffffffffffffffffffff16815260200190815260200160002060008282546129d89190613932565b925050819055505b5b50505050565b50505050565b6000612a0e8473ffffffffffffffffffffffffffffffffffffffff16612c5c565b15612b77578373ffffffffffffffffffffffffffffffffffffffff1663150b7a02612a37611c96565b8786866040518563ffffffff1660e01b8152600401612a5994939291906143a2565b602060405180830381600087803b158015612a7357600080fd5b505af1925050508015612aa457506040513d601f19601f82011682018060405250810190612aa19190614403565b60015b612b27573d8060008114612ad4576040519150601f19603f3d011682016040523d82523d6000602084013e612ad9565b606091505b50600081511415612b1f576040517f08c379a0000000000000000000000000000000000000000000000000000000008152600401612b16906142c1565b60405180910390fd5b805181602001fd5b63150b7a0260e01b7bffffffffffffffffffffffffffffffffffffffffffffffffffffffff1916817bffffffffffffffffffffffffffffffffffffffffffffffffffffffff191614915050612b7c565b600190505b949350505050565b606060006001612b9384612c7f565b01905060008167ffffffffffffffff811115612bb257612bb16133b3565b5b6040519080825280601f01601f191660200182016040528015612be45781602001600182028036833780820191505090505b509050600082602001820190505b600115612c51578080600190039150507f3031323334353637383961626364656600000000000000000000000000000000600a86061a8153600a8581612c3b57612c3a614430565b5b0494506000851415612c4c57612c51565b612bf2565b819350505050919050565b6000808273ffffffffffffffffffffffffffffffffffffffff163b119050919050565b600080600090507a184f03e93ff9f4daa797ed6e38ed64bf6a1f0100000000000000008310612cdd577a184f03e93ff9f4daa797ed6e38ed64bf6a1f0100000000000000008381612cd357612cd2614430565b5b0492506040810190505b6d04ee2d6d415b85acef81000000008310612d1a576d04ee2d6d415b85acef81000000008381612d1057612d0f614430565b5b0492506020810190505b662386f26fc100008310612d4957662386f26fc100008381612d3f57612d3e614430565b5b0492506010810190505b6305f5e1008310612d72576305f5e1008381612d6857612d67614430565b5b0492506008810190505b6127108310612d97576127108381612d8d57612d8c614430565b5b0492506004810190505b60648310612dba5760648381612db057612daf614430565b5b0492506002810190505b600a8310612dc9576001810190505b80915050919050565b6040518060a0016040528060008152602001600073ffffffffffffffffffffffffffffffffffffffff168152602001600073ffffffffffffffffffffffffffffffffffffffff168152602001600081526020016000151581525090565b828054612e3b90613779565b90600052602060002090601f016020900481019282612e5d5760008555612ea4565b82601f10612e7657805160ff1916838001178555612ea4565b82800160010185558215612ea4579182015b82811115612ea3578251825591602001919060010190612e88565b5b509050612eb19190612eb5565b5090565b5b80821115612ece576000816000905550600101612eb6565b5090565b6000604051905090565b600080fd5b600080fd5b60007fffffffff0000000000000000000000000000000000000000000000000000000082169050919050565b612f1b81612ee6565b8114612f2657600080fd5b50565b600081359050612f3881612f12565b92915050565b600060208284031215612f5457612f53612edc565b5b6000612f6284828501612f29565b91505092915050565b60008115159050919050565b612f8081612f6b565b82525050565b6000602082019050612f9b6000830184612f77565b92915050565b600081519050919050565b600082825260208201905092915050565b60005b83811015612fdb578082015181840152602081019050612fc0565b83811115612fea576000848401525b50505050565b6000601f19601f8301169050919050565b600061300c82612fa1565b6130168185612fac565b9350613026818560208601612fbd565b61302f81612ff0565b840191505092915050565b600060208201905081810360008301526130548184613001565b905092915050565b6000819050919050565b61306f8161305c565b811461307a57600080fd5b50565b60008135905061308c81613066565b92915050565b6000602082840312156130a8576130a7612edc565b5b60006130b68482850161307d565b91505092915050565b600073ffffffffffffffffffffffffffffffffffffffff82169050919050565b60006130ea826130bf565b9050919050565b6130fa816130df565b82525050565b600060208201905061311560008301846130f1565b92915050565b613124816130df565b811461312f57600080fd5b50565b6000813590506131418161311b565b92915050565b6000806040838503121561315e5761315d612edc565b5b600061316c85828601613132565b925050602061317d8582860161307d565b9150509250929050565b600081519050919050565b600082825260208201905092915050565b6000819050602082019050919050565b6131bc8161305c565b82525050565b60006131cd826130bf565b9050919050565b6131dd816131c2565b82525050565b6131ec81612f6b565b82525050565b60a08201600082015161320860008501826131b3565b50602082015161321b60208501826131d4565b50604082015161322e60408501826131d4565b50606082015161324160608501826131b3565b50608082015161325460808501826131e3565b50505050565b600061326683836131f2565b60a08301905092915050565b6000602082019050919050565b600061328a82613187565b6132948185613192565b935061329f836131a3565b8060005b838110156132d05781516132b7888261325a565b97506132c283613272565b9250506001810190506132a3565b5085935050505092915050565b600060208201905081810360008301526132f7818461327f565b905092915050565b6133088161305c565b82525050565b600060208201905061332360008301846132ff565b92915050565b60008060006060848603121561334257613341612edc565b5b600061335086828701613132565b935050602061336186828701613132565b92505060406133728682870161307d565b9150509250925092565b60006020828403121561339257613391612edc565b5b60006133a084828501613132565b91505092915050565b600080fd5b600080fd5b7f4e487b7100000000000000000000000000000000000000000000000000000000600052604160045260246000fd5b6133eb82612ff0565b810181811067ffffffffffffffff8211171561340a576134096133b3565b5b80604052505050565b600061341d612ed2565b905061342982826133e2565b919050565b600067ffffffffffffffff821115613449576134486133b3565b5b61345282612ff0565b9050602081019050919050565b82818337600083830152505050565b600061348161347c8461342e565b613413565b90508281526020810184848401111561349d5761349c6133ae565b5b6134a884828561345f565b509392505050565b600082601f8301126134c5576134c46133a9565b5b81356134d584826020860161346e565b91505092915050565b600080604083850312156134f5576134f4612edc565b5b600083013567ffffffffffffffff81111561351357613512612ee1565b5b61351f858286016134b0565b92505060206135308582860161307d565b9150509250929050565b61354381612f6b565b811461354e57600080fd5b50565b6000813590506135608161353a565b92915050565b6000806040838503121561357d5761357c612edc565b5b600061358b85828601613132565b925050602061359c85828601613551565b9150509250929050565b600067ffffffffffffffff8211156135c1576135c06133b3565b5b6135ca82612ff0565b9050602081019050919050565b60006135ea6135e5846135a6565b613413565b905082815260208101848484011115613606576136056133ae565b5b61361184828561345f565b509392505050565b600082601f83011261362e5761362d6133a9565b5b813561363e8482602086016135d7565b91505092915050565b6000806000806080858703121561366157613660612edc565b5b600061366f87828801613132565b945050602061368087828801613132565b93505060406136918782880161307d565b925050606085013567ffffffffffffffff8111156136b2576136b1612ee1565b5b6136be87828801613619565b91505092959194509250565b600080604083850312156136e1576136e0612edc565b5b60006136ef8582860161307d565b92505060206137008582860161307d565b9150509250929050565b6000806040838503121561372157613720612edc565b5b600061372f85828601613132565b925050602061374085828601613132565b9150509250929050565b7f4e487b7100000000000000000000000000000000000000000000000000000000600052602260045260246000fd5b6000600282049050600182168061379157607f821691505b602082108114156137a5576137a461374a565b5b50919050565b7f4552433732313a20617070726f76616c20746f2063757272656e74206f776e6560008201527f7200000000000000000000000000000000000000000000000000000000000000602082015250565b6000613807602183612fac565b9150613812826137ab565b604082019050919050565b60006020820190508181036000830152613836816137fa565b9050919050565b7f4552433732313a20617070726f76652063616c6c6572206973206e6f7420746f60008201527f6b656e206f776e6572206f7220617070726f76656420666f7220616c6c000000602082015250565b6000613899603d83612fac565b91506138a48261383d565b604082019050919050565b600060208201905081810360008301526138c88161388c565b9050919050565b7f4e487b7100000000000000000000000000000000000000000000000000000000600052601160045260246000fd5b60006139098261305c565b91506139148361305c565b925082821015613927576139266138cf565b5b828203905092915050565b600061393d8261305c565b91506139488361305c565b9250827fffffffffffffffffffffffffffffffffffffffffffffffffffffffffffffffff0382111561397d5761397c6138cf565b5b828201905092915050565b7f4e487b7100000000000000000000000000000000000000000000000000000000600052603260045260246000fd5b60006139c28261305c565b91507fffffffffffffffffffffffffffffffffffffffffffffffffffffffffffffffff8214156139f5576139f46138cf565b5b600182019050919050565b7f4552433732313a2063616c6c6572206973206e6f7420746f6b656e206f776e6560008201527f72206f7220617070726f76656400000000000000000000000000000000000000602082015250565b6000613a5c602d83612fac565b9150613a6782613a00565b604082019050919050565b60006020820190508181036000830152613a8b81613a4f565b9050919050565b7f596f7520617265206e6f7420746865206f776e6572206f66207468697320746f60008201527f6b656e0000000000000000000000000000000000000000000000000000000000602082015250565b6000613aee602383612fac565b9150613af982613a92565b604082019050919050565b60006020820190508181036000830152613b1d81613ae1565b9050919050565b7f546f6b656e20697320616c726561647920736f6c640000000000000000000000600082015250565b6000613b5a601583612fac565b9150613b6582613b24565b602082019050919050565b60006020820190508181036000830152613b8981613b4d565b9050919050565b7f4552433732313a20696e76616c696420746f6b656e2049440000000000000000600082015250565b6000613bc6601883612fac565b9150613bd182613b90565b602082019050919050565b60006020820190508181036000830152613bf581613bb9565b9050919050565b7f4552433732313a2061646472657373207a65726f206973206e6f74206120766160008201527f6c6964206f776e65720000000000000000000000000000000000000000000000602082015250565b6000613c58602983612fac565b9150613c6382613bfc565b604082019050919050565b60006020820190508181036000830152613c8781613c4b565b9050919050565b7f4f6e6c79206d61726b6574706c616365206f776e65722063616e20757064617460008201527f65206c697374696e672070726963650000000000000000000000000000000000602082015250565b6000613cea602f83612fac565b9150613cf582613c8e565b604082019050919050565b60006020820190508181036000830152613d1981613cdd565b9050919050565b7f506c65617365207375626d6974207468652061736b696e67207072696365206960008201527f6e206f7264657220746f20636f6d706c65746520746865207075726368617365602082015250565b6000613d7c604083612fac565b9150613d8782613d20565b604082019050919050565b60006020820190508181036000830152613dab81613d6f565b9050919050565b600081905092915050565b6000613dc882612fa1565b613dd28185613db2565b9350613de2818560208601612fbd565b80840191505092915050565b6000613dfa8285613dbd565b9150613e068284613dbd565b91508190509392505050565b7f5072696365206d75737420626520657175616c20746f206c697374696e67207060008201527f7269636500000000000000000000000000000000000000000000000000000000602082015250565b6000613e6e602483612fac565b9150613e7982613e12565b604082019050919050565b60006020820190508181036000830152613e9d81613e61565b9050919050565b7f4552433732313a207472616e736665722066726f6d20696e636f72726563742060008201527f6f776e6572000000000000000000000000000000000000000000000000000000602082015250565b6000613f00602583612fac565b9150613f0b82613ea4565b604082019050919050565b60006020820190508181036000830152613f2f81613ef3565b9050919050565b7f4552433732313a207472616e7366657220746f20746865207a65726f2061646460008201527f7265737300000000000000000000000000000000000000000000000000000000602082015250565b6000613f92602483612fac565b9150613f9d82613f36565b604082019050919050565b60006020820190508181036000830152613fc181613f85565b9050919050565b7f4552433732313a206d696e7420746f20746865207a65726f2061646472657373600082015250565b6000613ffe602083612fac565b915061400982613fc8565b602082019050919050565b6000602082019050818103600083015261402d81613ff1565b9050919050565b7f4552433732313a20746f6b656e20616c7265616479206d696e74656400000000600082015250565b600061406a601c83612fac565b915061407582614034565b602082019050919050565b600060208201905081810360008301526140998161405d565b9050919050565b7f45524337323155524953746f726167653a2055524920736574206f66206e6f6e60008201527f6578697374656e7420746f6b656e000000000000000000000000000000000000602082015250565b60006140fc602e83612fac565b9150614107826140a0565b604082019050919050565b6000602082019050818103600083015261412b816140ef565b9050919050565b7f5072696365206d7573742062652067726561746572207468616e207a65726f00600082015250565b6000614168601f83612fac565b915061417382614132565b602082019050919050565b600060208201905081810360008301526141978161415b565b9050919050565b60006080820190506141b360008301876130f1565b6141c060208301866130f1565b6141cd60408301856132ff565b6141da6060830184612f77565b95945050505050565b7f4552433732313a20617070726f766520746f2063616c6c657200000000000000600082015250565b6000614219601983612fac565b9150614224826141e3565b602082019050919050565b600060208201905081810360008301526142488161420c565b9050919050565b7f4552433732313a207472616e7366657220746f206e6f6e20455243373231526560008201527f63656976657220696d706c656d656e7465720000000000000000000000000000602082015250565b60006142ab603283612fac565b91506142b68261424f565b604082019050919050565b600060208201905081810360008301526142da8161429e565b9050919050565b7f436f756e7465723a2064656372656d656e74206f766572666c6f770000000000600082015250565b6000614317601b83612fac565b9150614322826142e1565b602082019050919050565b600060208201905081810360008301526143468161430a565b9050919050565b600081519050919050565b600082825260208201905092915050565b60006143748261434d565b61437e8185614358565b935061438e818560208601612fbd565b61439781612ff0565b840191505092915050565b60006080820190506143b760008301876130f1565b6143c460208301866130f1565b6143d160408301856132ff565b81810360608301526143e38184614369565b905095945050505050565b6000815190506143fd81612f12565b92915050565b60006020828403121561441957614418612edc565b5b6000614427848285016143ee565b91505092915050565b7f4e487b7100000000000000000000000000000000000000000000000000000000600052601260045260246000fdfea264697066735822122097378345c5f10a2f810ac3fa767cc927ec881338c7727fda40f1304539b3608964736f6c63430008090033",
  "linkReferences": {},
  "deployedLinkReferences": {}
}